:100000000C9410110D9412610D94E7600D94BC6076
:100010000D9491600D9466600D943B600D9410609A
:100020000D94E55F0C9441110C9441110C94411115
:100030000C9441110C9441110C9441110D949E4467
:100040000C9441110C9407410C94FD3E0C94DAE79A
:100050000C9441110C9441110C9441110D949B5F2F
:100060000C9441110D94A4620D9464620C9441119E
:100070000C9441110C9441110C9441110C944111B8
:100080000D9490410D9415410D949A400C9441119A
:100090000C9441110C9441110C9441110C94411198
:1000A0000C9441110C9441110D94B73D0D941F40D7
:1000B0000D941D3D0C9441110C9441110D94853FFC
:1000C0000D94EB3E0D94513E0C9441110C94411152
:1000D0000C9441110C9441110D942E620D94EE611B
:1000E0000C9441110C944FD80C94A7370C9474D4F1
:1000F0000C94F7E00C9492160C9488570C94E9D366
:100100000D9425130C9489D40C9433D50C945094ED
:100110000C9432850C94325A0C9448A10C9450D40F
:100120000C943E4F0D94A1610C9488A00C94CEBC0D
:100130000C9486D40C94CE5F0C948A460C94F8EB05
:100140000C940E470D94420D0C94A8FF0C9433812F
:100150000D94212D0C94A7610D94BF4E0C9449CAA7
:100160000C945CD40C949BD30C9419960C946CD581
:100170000D9466610C94394B0C9456D40C945834FD
:100180000C94A7D30D94B9000D94F04D0C949C27BA
:100190000D94B2610D9429550D94184E0C942612AD
:1001A0000C942D570C94ACA20C94C9AF0D94152D42
:1001B0000C94BA260C94485A0C940AD40C94ED83EF
:1001C0000C94F9840C9437610C9436B80C947DD45B
:1001D0000C94D6760C94F1AC0C944D560C94B6D38A
:1001E0000D9440120D94C0200D94EB1B0D94D84D2E
:1001F0000D94BE010C94BAA80C944AFF0C94D446FA
:100200000C94DDF00C94E6D30C9436590C942E2803
:100210000C94BA9F0D94B21E0C9477D40C945A5639
:100220000C9454280C9458D50C94C3F00C9437D9E2
:100230000C948CC20D94CC0E0C9404D40D941D2DF2
:100240000C94B0D30D9409550C945BD50D94A683F2
:100250000D942F810D94571A0C9457A20C9468D5C5
:100260000C94A94A0C9471590C94EF5F0C9461D5CD
:100270000C9412610C94AE940C945ED50D94FA1407
:100280000D94221A0C94764A0D947E1F0C94034B05
:100290000D94E0610C945DB50C9495600D94A57877
:1002A0000C948E570C9491D30C943EE20C947BD515
:1002B0000C949B9B0C94F2D30C9441D40D944E6BF4
:1002C0000C94895F0D9400220C94F5550D943A55C9
:1002D0000C94CF4A0D941E0B0C940D850C9435DEB6
:1002E0000C9466DA0C942B590C94BA940C945A50D2
:1002F0000D9496210D9432170C94E9B90D946B016D
:100300000C94CE840C94BB980C9495D40C943CAE75
:100310000C943D5A0D94A80C0C94AAD30C949A55A5
:100320000C94C15F0C94B9D30C94DFB10D948D196A
:100330000D94E7150C94DAD30C94A5270C9408D5EA
:100340000C948CD40C94FED30D9481160D94FF82E2
:100350000C94BF520D94604F0C94A7EC0D94ED1AC1
:100360000C945D590C94DA590C94BBD40D94FD1681
:100370000D94F6550C9460600C94F5940D942A231A
:100380000D94191F0C9494A40D942F0A0D94C31866
:100390000D942F2D0C9488D30C94EBB40C945355DE
:1003A0000D944D1E0C9444260D944E000D94CC4D8E
:1003B0000C9441590C94BCD30C94C2950C94BFD3AB
:1003C0000C94A1D30C942D470D94B80B0D945D1093
:1003D0000C9421EB0C949D270D94252D0C94D5B6EF
:1003E0000C94BBCB0C9468D40C943DAE0C942A5462
:1003F0000C9414DD0C94569F0C94965F0D94FC4D58
:100400000C94ACA10C9436820D9480830C9498D3F8
:100410000D9464610C94A85F0C9480D40C94C5CCAA
:100420000C942DF00C9482D30C9407D40C94C247F6
:100430000D941F2D0C94ACA60C943BA90C9492EC3B
:100440000C94D1D30C9475600C948ED30C94EB4F18
:100450000C949DDC0C9471D40C9409260C94409A55
:100460000C94A7CE0C94A4D40C9484A90D942701C9
:100470000C94CFB50D94811C0D944F540C9478D5E9
:100480000D94B61B0C94ADC50C94594B0C9485D3AC
:100490000C94685F0C94E44A0C9484840C9453602C
:1004A0000C94F2460C945EB00D94E7020C941794F1
:1004B0000C9498D40C947ED50D94332D0C9445D582
:1004C0000C944FD50C948BFE0C94CC120D9460615F
:1004D0000C94E7840D947B550D9468610C94FC2575
:1004E0000D9434160D94B51C0C94C8DE0C9442D5B2
:1004F0000C94FD550C94ECD30C94AF460C94C8D3DB
:100500000C94ADD30D948C550C947AD40C946482D5
:100510000D94A2810C94E3A50D94070C0C94F8D3D0
:100520000C9456DF0C9471270D94374D0C94A5153F
:100530000C9488260D9447150D94B9530D940B23F4
:100540000C94E2180C94C2D40C94ECB40C94619505
:100550000C9464D50C949ED30C9459D80D94AE4D44
:100560000C94D45F0C9444AF0D94172D0C94BE9D45
:100570000C946D550D94A7550D94312D0D94FA17CB
:100580000C94DAF70C94B7190C9416260C940157B6
:100590000C94D1E30C9485A90D94194E0C94E0D3DE
:1005A0000C94BAAE0D9452090D944B150C940D4851
:1005B0000C94BC980C9425550C9444A30C94BADB71
:1005C0000C94F2DA0C946ED40D94AA4D0C94C2D310
:1005D0000C94A7B80C941E4B0D94D8120C9469552A
:1005E0000C94D7D30C948FD40D94292D0C9447D40C
:1005F0000C9486820D94910D0C94F8FF0C94E9B044
:100600000C94FA250C94594A0C94DA5F0D94D88115
:100610000C94C3DD0C945D540C94F0690C94F9E9CE
:100620000C9440840C94F3A00C9430D50C94E925E0
:100630000C943ED40C94D4D40C94F0EC0C9472D55D
:100640000C949E810D942A210C946FD50C9402BEBB
:100650000C9401A20D942B2D0C94B2A70C944BDC9E
:100660000C94F0AC0C9494D30C94E5D40C940F2619
:100670000C94E2250C9473560C94A9D40C94EE4A75
:100680000C94DE9E0C9474500D941A1D0C94A318B7
:100690000C9497260C94C5270D94F64D0C9429D4F0
:1006A0000C94E5590D946C220D949F110C94ECDF81
:1006B0000C9401D40C946EE50C946FF00C948CF7B0
:1006C0000C941C260D94FF530C945FD40C94DC27DF
:1006D0000D948E180C94DA4A0C94F6940C94BB5F2B
:1006E0000C94209B0D94C1550C94419C0D94C64DC7
:1006F0000C94D0BB0D941B0F0D94C0610C94C44A94
:100700000D9460140C9449B40C94A6940D9419554E
:100710000C9444D40D949C150C94D6B60C940047BC
:100720000C94615F0D94E61D0C94AABA0D94CC61F3
:100730000C948BD30C9436A80C944E4B0C94C5D3CC
:100740000C94F2810C948F260C9480280C949ED4E7
:100750000C9441BC0D946B550D94B44D0C940F3A10
:100760000C9459D40D94211B0C942CD40D9407098E
:100770000D94BC0F0D94E44D0C94DDD30C944CD52A
:100780000C9452590C94CED30C9451500C940CB13F
:100790000C947FEE0D94FE100C946BD40C9438D412
:1007A0000C94FBD30C9436D50D944B4D0C94BD2773
:1007B0000C9452D50C94B6270C9435D40D94470262
:1007C0000C9457500C9402260C9443110C9494579B
:1007D0000C94C15E0C94A6BB0C94C1960C94E34798
:1007E0000C94F2550C94EA380D94EA4D0D94DE4DBC
:1007F0000C9453500D94BD080D945E610C9475D506
:100800000D9449820C94C6460C94FFDD0C944AD496
:100810000C94F2D90C944DD40C9439D50C9492D4F8
:100820000C94B55F0C9465D40C94D4270C944CE1D3
:100830000C94CBD30C946F810C949B5F0C9453D489
:100840000D94AD140D9481610C941F550C94AC99CA
:100850000C94F5D30C94F84A0C944BF00C94A1979B
:100860000C948EC70C94A4D30D946A610C943FD55C
:100870000C942DD50C947FD30C94A4470C9410D4D5
:100880000C94E3460C94CD270C94ACFD0D94192DDB
:100890000D94A04D0D942D2D0C94A94F0C940DD4B6
:1008A0000D94BC080C94E3D30C9485ED0C94EFD319
:1008B0000C9484600C9454560C94434B0C9431A7C4
:1008C0000C942A550D94C6170C94E3270D94232DF0
:1008D0000C94EFFE0C94AF940C947B830C94A75271
:1008E0000C943CD50D94DC550D9459190C94D4D32B
:1008F0000C9469B10C94DB550C947B460C94964790
:100900000D948B120C94D1AA0C94DF840C9455D5C1
:100910000D94A54D0C945EB50C9435280D94320EB3
:100920000D94244F0C9416FE0C94D7840C940DB3A4
:100930000D941B2D0D9462610C94221A0C941D577A
:100940000C942FD40C949BD40D94EA1F0C941B761A
:100950000C940D830C941CA00D94CC060C942728A9
:100960000C9481260C94DD130D947D0E0C942D5661
:100970000C9432D40D94811D0D94BA4D0D94D46114
:100980000C9483D40C94C5250C9447B70C943BD499
:100990000C9462D40C9426D40C94ACD40D94272DD2
:1009A0000C94B3D30C94EAB00C94F8560C9451E325
:1009B0000D94C6130C9466A60C94934A0D94D24DD4
:1009C0000C94CDE40C940DB10D94C04D0C94A7E0A3
:1009D0000C945FB90D94A64D0C9427330D94151407
:1009E0000C9420590C942A770D947E0A0C94F79657
:1009F0000C942F600D9418560C9457470D94542066
:100A00000C948F560C942AD5526573657420636FCD
:100A10006E74726F6C2069732063757272656E7488
:100A20006C792064697361626C65642E00436F6D3C
:100A30006D732068616C7465642E204E6578742037
:100A4000627974652077696C6C20726573657420B7
:100A50007468652041726475696E6F2E0000537072
:100A600065656475696E6F20323032322E31302DFB
:100A700064657600737065656475696E6F203230E9
:100A8000323231302D64657600000030303200FFA4
:100A90000A5061676520686173206E6F742062651B
:100AA000656E20696D706C656D656E746564207926
:100AB0006574000A426F6F7374206C6F6F6B757092
:100AC000207461626C65000A326E642049676E6949
:100AD00074696F6E204D6170000A326E6420467535
:100AE000656C204D6170000A5061676520392043B4
:100AF0006667000A5472696D2031205461626C652A
:100B0000000A565654204D6170000A426F6F73748C
:100B1000204D6170000A5067203620436F6E666971
:100B200067000A414652204D6170000A5067203428
:100B300020436667000A49676E6974696F6E204DCD
:100B40006170000A5067203220436667000A5645EC
:100B5000204D6170004572723A20556E6B6E6F7752
:100B60006E20636D64000A3D3D3D436F6D6D616EA7
:100B7000642048656C703D3D3D0A0A416C6C206301
:100B80006F6D6D616E6473206172652073696E674D
:100B90006C652063686172616374657220616E6464
:100BA0002061726520636F6E636174656E61746548
:100BB0006420776974682074686569722070617256
:100BC000616D6574657273200A776974686F7574F6
:100BD000207370616365732E53796E7461783A2067
:100BE000203C636F6D6D616E643E2B3C7061726181
:100BF0006D65746572313E2B3C706172616D657418
:100C00006572323E2B3C706172616D657465724E27
:100C10003E0A0A3D3D3D4C697374206F6620436F68
:100C20006D6D616E64733D3D3D0A0A41202D204487
:100C30006973706C617973203331206279746573E4
:100C4000206F662063757272656E7453746174757B
:100C5000732076616C75657320696E2062696E61C0
:100C6000727920286C6976652064617461290A4272
:100C7000202D204275726E2063757272656E74202D
:100C80006D617020616E6420636F6E66696750618C
:100C900067652076616C75657320746F206565707B
:100CA000726F6D0A43202D205465737420434F4D9D
:100CB00020706F72742E2020557365642062792035
:100CC00054756E657273747564696F20746F2073E8
:100CD0006565207768657468657220616E2045439C
:100CE00055206973206F6E206120676976656E20DC
:100CF00073657269616C200A20202020706F727405
:100D00002E2052657475726E7320612062696E6167
:100D10007279206E756D6265722E0A4E202D2050FC
:100D200072696E74206E6577206C696E652E0A504C
:100D3000202D205365742063757272656E74207067
:100D40006167652E202053796E7461783A202050B7
:100D50002B3C706167654E756D6265723E0A52206C
:100D60002D2053616D65206173204120636F6D6D8F
:100D7000616E640A53202D20446973706C61792080
:100D80007369676E6174757265206E756D626572E8
:100D90000A51202D2053616D65206173205320631B
:100DA0006F6D6D616E640A56202D20446973706CFE
:100DB0006179206D6170206F7220636F6E66696764
:100DC000506167652076616C75657320696E20627D
:100DD000696E6172790A57202D20536574206F6EF9
:100DE00065206279746520696E206D6170206F7274
:100DF00020636F6E666967506167652E20204578B5
:100E000070656374732062696E61727920706172BB
:100E1000616D65746572732E200A2020202053793D
:100E20006E7461783A2020572B3C6F666673657448
:100E30003E2B3C6E6577627974653E0A74202D20E6
:100E40005365742063616C6962726174696F6E20AE
:100E500076616C7565732E202045787065637473B8
:100E60002062696E61727920706172616D6574656E
:100E700072732E20205461626C6520696E646578FF
:100E80002069732065697468657220302C200A20FF
:100E9000202020312C206F7220322E202053796E9A
:100EA0007461783A2020742B3C74626C655F6964CD
:100EB000783E2B3C6E657756616C7565313E2B3CF8
:100EC0006E657756616C7565323E2B3C6E65775664
:100ED000616C75654E3E0A5A202D20446973706C12
:100EE00061792063616C6962726174696F6E2076EA
:100EF000616C7565730A54202D20446973706C61B0
:100F000079732032353620746F6F7468206C6F6788
:100F100020656E747269657320696E2062696E6106
:100F200072790A72202D20446973706C6179732084
:100F300032353620746F6F7468206C6F6720656E71
:100F400074726965730A55202D2050726570617244
:100F50006520666F72206669726D776172652075B3
:100F600070646174652E20546865206E6578742005
:100F70006279746520726563656976656420776956
:100F80006C6C2063617573652074686520417264C0
:100F900075696E6F20746F2072657365742E0A3FD9
:100FA000202D20446973706C6179732074686973B3
:100FB0002068656C702070616765002C20005755B3
:100FC00045004F3200496E6C65742074656D700089
:100FD000436F6F6C616E7400526573657420636F4C
:100FE0006E74726F6C2069732063757272656E74B3
:100FF0006C792064697361626C65642E00436F6D67
:101000006D732068616C7465642E204E6578742061
:10101000627974652077696C6C20726573657420E1
:101020007468652041726475696E6F2E0053706537
:10103000656475696E6F20323032322E31302D6426
:10104000657600737065656475696E6F2032303245
:101050003231302D646576004552523B20496E6333
:101060006F727265637420454550524F4D2073690D
:101070007A65003030310020002000200020002060
:10108000202020000000800020012001800020019D
:101090008000F0008001C000C0002001C00080007E
:1010A00020010001537065656475696E6F005370AF
:1010B00065656475696E6F20323031392E30382D98
:1010C00073657200537065656475696E6F20637334
:1010D0007830323031392E3800040E11161A1C21A6
:1010E0002A2C2E30323436383A3C3E404244464870
:1010F0004C4E505256585A5D5F63686F790000201D
:10110000002300260029002C002F003200000100DF
:101110000003010601090100002100240027002A24
:10112000002D003000330001010000040107010A16
:101130000100002200250028002B002E0031003481
:101140000002010000050108010B01050505050766
:101150000508080808020202020A0A080804040432
:10116000040101010101010101030303030303035E
:1011700003040707070C0C0C0C0C0C0C0C020202ED
:101180000206060606060606060B0B0B0B0B0B0BE0
:101190000B0102102020080810204010204080027F
:1011A00001020108040201010204081020408080AD
:1011B0004020100804020180040201804020100831
:1011C0000402010804020101020408102040800109
:1011D0000204081020408000000A0B02090C0D0ECA
:1011E00008070304010000000000000000000000E8
:1011F00000000000000000000000000000000000EF
:1012000000000012111000000000000000000000AB
:1012100000000000000000000000000000000000CE
:1012200000963007772C610EEEBA51099919C46DFA
:10123000078FF46A7035A563E9A395649E3288DB55
:101240000EA4B8DC791EE9D5E088D9D2972B4CB62C
:1012500009BD7CB17E072DB8E7911DBF906410B722
:101260001DF220B06A4871B9F3DE41BE847DD4DA44
:101270001AEBE4DD6D51B5D4F4C785D38356986C71
:1012800013C0A86B647AF962FDECC9658A4F5C01F2
:1012900014D96C0663633D0FFAF50D088DC8206EF6
:1012A0003B5E10694CE44160D5727167A2D1E403E2
:1012B0003C47D4044BFD850DD26BB50AA5FAA8B501
:1012C000356C98B242D6C9BBDB40F9BCACE36CD8F4
:1012D00032755CDF45CF0DD6DC593DD1ABAC30D992
:1012E000263A00DE518051D7C81661D0BFB5F4B49C
:1012F0002123C4B3569995BACF0FA5BDB89EB802A5
:10130000280888055FB2D90CC624E90BB1877C6F29
:101310002F114C6858AB1D61C13D2D66B69041DC64
:10132000760671DB01BC20D2982A10D5EF8985B1F1
:10133000711FB5B606A5E4BF9F33D4B8E8A2C907AC
:101340007834F9000F8EA8099618980EE1BB0D6A43
:101350007F2D3D6D08976C6491015C63E6F4516BE1
:101360006B62616C1CD83065854E0062F2ED9506AB
:101370006C7BA5011BC1F4088257C40FF5C6D9B018
:101380006550E9B712EAB8BE8B7C88B9FCDF1DDD79
:1013900062492DDA15F37CD38C654CD4FB5861B2CD
:1013A0004DCE51B53A7400BCA3E230BBD441A5DFA9
:1013B0004AD795D83D6DC4D1A4FBF4D6D36AE96968
:1013C00043FCD96E34468867ADD0B860DA732D041B
:1013D00044E51D03335F4C0AAAC97C0DDD3C710551
:1013E00050AA41022710100BBE86200CC925B568F3
:1013F00057B3856F2009D466B99FE461CE0EF9DE3C
:101400005E98C9D9292298D0B0B4A8D7C7173DB3E0
:1014100059810DB42E3B5CBDB7AD6CBAC02083B80A
:10142000EDB6B3BF9A0CE2B6039AD2B1743947D580
:10143000EAAF77D29D1526DB048316DC73120B63AB
:10144000E3843B64943E6A6D0DA85A6A7A0BCF0E12
:10145000E49DFF099327AE000AB19E077D44930FD8
:10146000F0D2A3088768F2011EFEC206695D5762CA
:10147000F7CB67658071366C19E7066B6E761BD407
:10148000FEE02BD3895A7ADA10CC4ADD676FDFB9D8
:10149000F9F9EFBE8E43BEB717D58EB060E8A3D67C
:1014A000D67E93D1A1C4C2D83852F2DF4FF167BBC8
:1014B000D16757BCA6DD06B53F4B36B248DA2B0DD7
:1014C000D84C1B0AAFF64A0336607A0441C3EF607A
:1014D000DF55DF67A8EF8E6E3179BE69468CB36148
:1014E000CB1A8366BCA0D26F2536E2685295770C82
:1014F000CC03470BBBB91602222F260555BE3BBABB
:10150000C5280BBDB2925AB42B046AB35CA7FFD7AF
:10151000C231CFD0B58B9ED92C1DAEDE5BB0C2647C
:101520009B26F263EC9CA36A750A936D02A90609D7
:101530009C3F360EEB8567077213570005824ABF42
:1015400095147AB8E2AE2BB17B381BB60C9B8ED2C9
:10155000920DBED5E5B7EFDC7C21DFDB0BD4D2D317
:101560008642E2D4F1F8B3DD686E83DA1FCD16BE91
:10157000815B26B9F6E177B06F7747B718E65A086E
:1015800088706A0FFFCA3B06665C0B0111FF9E65FF
:101590008F69AE62F8D3FF6B6145CF6C1678E20AB3
:1015A000A0EED20DD75483044EC2B303396126672F
:1015B000A7F71660D04D476949DB776E3E4A6AD17E
:1015C000AEDC5AD6D9660BDF40F03BD83753AEBC01
:1015D000A9C59EBBDE7FCFB247E9FFB5301CF2BD87
:1015E000BD8AC2BACA3093B353A6A3B4240536D079
:1015F000BA9306D7CD2957DE54BF67D9232E7A6612
:10160000B3B84A61C4021B685D942B6F2A37BE0BC6
:10161000B4A18E0CC31BDF055A8DEF022D00000014
:101620000041311B1982623632C3532D2B04C56C25
:101630006445F4777D86A75A56C796414F088AD9E4
:10164000C849BBC2D18AE8EFFACBD9F4E30C4FB555
:10165000AC4D7EAEB58E2D839ECF1C98875112C2A5
:101660004A1023D953D370F4789241EF6155D7AE25
:101670002E14E6B537D7B5981C9684830559981B68
:101680008218A9009BDBFA2DB09ACB36A95D5D7755
:10169000E61C6C6CFFDF3F41D49E0E5ACDA2248421
:1016A00095E3159F8C2046B2A76177A9BEA6E1E815
:1016B000F1E7D0F3E82483DEC365B2C5DAAAAE5DF4
:1016C0005DEB9F464428CC6B6F69FD7076AE6B3145
:1016D00039EF5A2A202C09070B6D381C12F33646B5
:1016E000DFB2075DC6715470ED30656BF4F7F32A15
:1016F000BBB6C231A275911C8934A00790FBBC9F78
:1017000017BA8D840E79DEA92538EFB23CFF79F344
:1017100073BE48E86A7D1BC5413C2ADE58054F79F7
:10172000F0447E62E9872D4FC2C61C54DB018A1546
:101730009440BB0E8D83E823A6C2D938BF0DC5A047
:10174000384CF4BB218FA7960ACE968D130900CC96
:101750005C4831D7458B62FA6ECA53E177545DBB62
:10176000BA156CA0A3D63F8D88970E96915098D746
:10177000DE11A9CCC7D2FAE1EC93CBFAF55CD762C3
:10178000721DE6796BDEB554409F844F5958120E96
:10179000161923150FDA7038249B41233DA76BFDE2
:1017A00065E65AE67C2509CB576438D04EA3AE9146
:1017B00001E29F8A1821CCA73360FDBC2AAFE12447
:1017C000ADEED03FB42D83129F6CB20986AB244896
:1017D000C9EA1553D029467EFB687765E2F6793F62
:1017E0002FB7482436741B091D352A1204F2BC5346
:1017F0004BB38D485270DE657931EF7E60FEF3E6C3
:10180000E7BFC2FDFE7C91D0D53DA0CBCCFA368A95
:1018100083BB07919A7854BCB13965A7A84B9883CC
:101820003B0AA99822C9FAB50988CBAE104F5DEFE3
:101830005F0E6CF446CD3FD96D8C0EC27443125AC4
:10184000F3022341EAC1706CC1804177D847D73693
:101850009706E62D8EC5B500A584841BBC1A8A4167
:10186000715BBB5A6898E87743D9D96C5A1E4F2DE3
:10187000155F7E360C9C2D1B27DD1C003E12009848
:10188000B9533183A09062AE8BD153B59216C5F493
:10189000DD57F4EFC494A7C2EFD596D9F6E9BC079B
:1018A000AEA88D1CB76BDE319C2AEF2A85ED796BD3
:1018B000CAAC4870D36F1B5DF82E2A46E1E136DED4
:1018C00066A007C57F6354E8542265F34DE5F3B283
:1018D00002A4C2A91B6791843026A09F29B8AEC577
:1018E000E4F99FDEFD3ACCF3D67BFDE8CFBC6BA9D3
:1018F00080FD5AB2993E099FB27F3884ABB0241C58
:101900002CF115073532462A1E73773107B4E17082
:1019100048F5D06B513683467A77B25D634ED7FA7D
:10192000CB0FE6E1D2CCB5CCF98D84D7E04A129644
:10193000AF0B238DB6C870A09D8941BB84465D2343
:1019400003076C381AC43F1531850E0E2842984F94
:101950006703A9547EC0FA795581CB624C1FC53804
:10196000815EF423989DA70EB3DC9615AA1B005444
:10197000E55A314FFC996262D7D85379CE174FE1BF
:1019800049567EFA50952DD77BD41CCC62138A8D94
:101990002D52BB963491E8BB1FD0D9A006ECF37E44
:1019A0005EADC265476E91486C2FA05375E8361244
:1019B0003AA90709236A5424082B653F11E479A743
:1019C00096A548BC8F661B91A4272A8ABDE0BCCB94
:1019D000F2A18DD0EB62DEFDC023EFE6D9BDE1BC04
:1019E00014FCD0A70D3F838A267EB2913FB924D044
:1019F00070F815CB693B46E6427A77FD5BB56B65BF
:101A0000DCF45A7EC5370953EE763848F7B1AE0993
:101A1000B8F09F12A133CC3F8A72FD2493000000DE
:101A200000376AC2016ED4840359BE4602DCA8099D
:101A300007EBC2CB06B27C8D0485164F05B8511357
:101A40000E8F3BD10FD685970DE1EF550C64F91A37
:101A5000095393D8080A2D9E0A3D475C0B70A326B4
:101A60001C47C9E41D1E77A21F291D601EAC0B2F49
:101A70001B9B61ED1AC2DFAB18F5B56919C8F235C9
:101A800012FF98F713A626B111914C7310145A3C0B
:101A9000152330FE147A8EB8164DE47A17E0464DC1
:101AA00038D72C8F398E92C93BB9F80B3A3CEE44AB
:101AB0003F0B84863E523AC03C6550023D58175E4B
:101AC000366F7D9C3736C3DA3501A9183484BF5789
:101AD00031B3D59530EA6BD332DD01113390E56B2C
:101AE00024A78FA925FE31EF27C95B2D264C4D6217
:101AF000237B27A0222299E62015F3242128B478FD
:101B00002A1FDEBA2B4660FC29710A3E28F41C719C
:101B10002DC376B32C9AC8F52EADA2372FC08D9A5F
:101B200070F7E75871AE591E739933DC721C259318
:101B3000772B4F517672F11774459BD57578DC89F8
:101B40007E4FB64B7F16080D7D2162CF7CA474803A
:101B500079931E4278CAA0047AFDCAC67BB02EBC17
:101B60006C87447E6DDEFA386FE990FA6E6C86B54C
:101B70006B5BEC776A025231683538F369087FAFE6
:101B8000623F156D6366AB2B6151C1E960D4D7A686
:101B900065E3BD6464BA0322668D69E06720CBD734
:101BA0004817A115494E1F534B7975914AFC63DEC6
:101BB0004FCB091C4E92B75A4CA5DD984D989AC44C
:101BC00046AFF00647F64E4045C12482444432CD2C
:101BD0004173580F402AE649421D8C8B435068F1EF
:101BE00054670233553EBC755709D6B7568CC0F8BA
:101BF00053BBAA3A52E2147C50D57EBE51E839E27A
:101C00005ADF53205B86ED6659B187A4583491EBB7
:101C10005D03FB295C5A456F5E6D2FAD5F801B3500
:101C2000E1B771F7E0EECFB1E2D9A573E35CB33C65
:101C3000E66BD9FEE73267B8E5050D7AE4384A2647
:101C4000EF0F20E4EE569EA2EC61F460EDE4E22F8B
:101C5000E8D388EDE98A36ABEBBD5C69EAF0B813EE
:101C6000FDC7D2D1FC9E6C97FEA90655FF2C101A19
:101C7000FA1B7AD8FB42C49EF975AE5CF848E900BD
:101C8000F37F83C2F2263D84F0115746F194410957
:101C9000F4A32BCBF5FA958DF7CDFF4FF6605D7869
:101CA000D95737BAD80E89FCDA39E33EDBBCF57177
:101CB000DE8B9FB3DFD221F5DDE54B37DCD80C6B33
:101CC000D7EF66A9D6B6D8EFD481B22DD504A462D9
:101CD000D033CEA0D16A70E6D35D1A24D210FE5E56
:101CE000C527949CC47E2ADAC6494018C7CC5657EB
:101CF000C2FB3C95C3A282D3C195E811C0A8AF4DE9
:101D0000CB9FC58FCAC67BC9C8F1110BC9740744E4
:101D1000CC436D86CD1AD3C0CF2DB902CE4096AF3D
:101D20009177FC6D902E422B921928E9939C3EA648
:101D300096AB546497F2EA2295C580E094F8C7BC4C
:101D40009FCFAD7E9E9613389CA179FA9D246FB5E6
:101D500098130577994ABB319B7DD1F39A30358929
:101D60008D075F4B8C5EE10D8E698BCF8FEC9D8074
:101D70008ADBF7428B82490489B523C68888649A36
:101D800083BF0E5882E6B01E80D1DADC8154CC933A
:101D90008463A651853A1817870D72D586A0D0E2C4
:101DA000A997BA20A8CE0466AAF96EA4AB7C78EBFA
:101DB000AE4B1229AF12AC6FAD25C6ADAC1881F198
:101DC000A72FEB33A6765575A4413FB7A5C429F8D4
:101DD000A0F3433AA1AAFD7CA39D97BEA2D073C4F1
:101DE000B5E71906B4BEA740B689CD82B70CDBCDE6
:101DF000B23BB10FB3620F49B155658BB06822D7C2
:101E0000BB5F4815BA06F653B8319C91B9B48ADE67
:101E1000BC83E01CBDDA5E5ABFED3498BE00000002
:101E2000006567BCB88BC809AAEEAFB512579762B8
:101E30008F32F0DE37DC5F6B25B938D79DEF28B4E1
:101E4000C58A4F087D64E0BD6F018701D7B8BFD652
:101E50004ADDD86AF23377DFE0561063589F57198E
:101E600050FA30A5E8149F10FA71F8AC42C8C07B54
:101E7000DFADA7C76743087275266FCECD707FAD03
:101E8000951518112DFBB7A43F9ED0188727E8CFD2
:101E90001A428F73A2AC20C6B0C9477A083EAF324F
:101EA000A05BC88E18B5673B0AD00087B26938506E
:101EB0002F0C5FEC97E2F059858797E53DD1878637
:101EC00065B4E03ADD5A4F8FCF3F2833778610E470
:101ED000EAE37758520DD8ED4068BF51F8A1F82BCE
:101EE000F0C49F97482A30225A4F579EE2F66F4916
:101EF0007F9308F5C77DA740D518C0FC6D4ED09FD5
:101F0000352BB7238DC518969FA07F2A271947FD2B
:101F1000BA7C204102928FF410F7E848A83D58148B
:101F20009B583FA823B6901D31D3F7A1896ACF767D
:101F3000140FA8CAACE1077FBE8460C306D270A0AC
:101F40005EB7171CE659B8A9F43CDF154C85E7C20B
:101F5000D1E0807E690E2FCB7B6B4877C3A20F0D3B
:101F6000CBC768B17329C704614CA0B8D9F5986F85
:101F70004490FFD3FC7E5066EE1B37DA564D27B9EE
:101F80000E284005B6C6EFB0A4A3880C1C1AB0DB1F
:101F9000817FD767399178D22BF41F6E9303F72690
:101FA0003B66909A83883F2F91ED58932954604463
:101FB000B43107F80CDFA84D1EBACFF1A6ECDF92C2
:101FC000FE89B82E4667179B54027027ECBB48F079
:101FD00071DE2F4CC93080F9DB55E745639CA03F8B
:101FE0006BF9C783D3176836C1720F8A79CB375D17
:101FF000E4AE50E15C40FF544E2598E8F673888BC0
:10200000AE16EF3716F84082049D273EBC241FE928
:102010002141785599AFD7E08BCAB05C333BB659B4
:10202000ED5ED1E555B07E5047D519ECFF6C213BF4
:1020300062094687DAE7E932C8828E8E70D49EED57
:1020400028B1F951905F56E4823A31583A83098FAA
:10205000A7E66E331F08C1860D6DA63AB5A4E14010
:10206000BDC186FC052F2949174A4EF5AFF37622EC
:102070003296119E8A78BE2B981DD997204BC9F4B1
:10208000782EAE48C0C001FDD2A566416A1C5E969E
:10209000F779392A4F97969F5DF2F123E505196B81
:1020A0004D607ED7F58ED162E7EBB6DE5F528E09CA
:1020B000C237E9B57AD9460068BC21BCD0EA31DF25
:1020C000888F56633061F9D622049E6A9ABDA6BDF8
:1020D00007D8C101BF366EB4AD530908159A4E72C8
:1020E0001DFF29CEA511867BB774E1C70FCDD9108E
:1020F00092A8BEAC2A461119382376A5807566C60B
:10210000D810017A60FEAECF729BC973CA22F1A4C7
:1021100057479618EFA939ADFDCC5E114506EE4D37
:10212000766389F1CE8D2644DCE841F86451792F3D
:10213000F9341E9341DAB12653BFD69AEBE9C6F9BA
:10214000B38CA1450B620EF01907694CA1BE519BDF
:102150003CDB3627843599929650FE2E2E99B95441
:1021600026FCDEE89E12715D8C7716E134CE2E36A9
:10217000A9AB498A1145E63F03208183BB7691E0F4
:10218000E313F65C5BFD59E949983E55F12106825F
:102190006C44613ED4AACE8BC6CFA9377E38417F2E
:1021A000D65D26C36EB389767CD6EECAC46FD61DC3
:1021B000590AB1A1E1E41E14F38179A84BD769CB88
:1021C00013B20E77AB5CA1C2B939C67E0180FEA9FD
:1021D0009CE59915240B36A0366E511C8EA7166609
:1021E00086C271DA3E2CDE6F2C49B9D394F081049B
:1021F0000995E6B8B17B490DA31E2EB11B483ED20E
:10220000432D596EFBC3F6DBE9A69167511FA9B0B8
:10221000CC7ACE0C749461B966F10605DE005E01DD
:1022200011241FBECFEFD1E2DEBFCDBF00E00CBF57
:1022300012E0A0E0B2E0E0E0F0E103E00BBF02C09A
:1022400007900D92A037B107D9F720E2A0E7B2E0DE
:1022500001C01D92AF30B207E1F711E1C0E1D1E159
:1022600000E006C021970109802FFE010F94E78549
:10227000CF30D10780E00807A9F70F94586F0D946D
:10228000FE870C940000CF92DF92EF92FF92209194
:10229000451E3091461E8091E01E9091E11E281748
:1022A000390708F061C04091B41E5091B51E60918D
:1022B000B61E7091B71E8091D71C90E0B0E0A0E0F0
:1022C000481759076A077B0708F452C08091E20754
:1022D000882309F44DC080914B0B90914C0BA09139
:1022E0004D0BB0914E0B892B8A2B8B2B09F440C0E0
:1022F000A0919B05F89420914B0B30914C0B409191
:102300004D0B50914E0BB0E00F94A9856093500B8C
:102310007093510B8093520B9093530B7894C09011
:10232000500BD090510BE090520BF090530BF69461
:10233000E794D794C794C092500BD092510BE0927F
:10234000520BF092530B60E077E883E993E0A7012A
:1023500096010F945885203586E4380798F020912F
:10236000451E3091461E0EC08091E207811129C0A2
:10237000C090500BD090510BE090520BF090530B4B
:1023800030E020E0CC0CDD1CEE1CFF1C8BE4C816FA
:1023900088E9D80685E0E806F10408F049C08BE436
:1023A00098E9A5E0B0E08093050290930602A0931F
:1023B0000702B0930802C901FF90EF90DF90CF9021
:1023C00008958091B0059091B105A091B205B091AA
:1023D000B305892B8A2B8B2B59F28091AC059091F8
:1023E000AD05A091AE05B091AF05892B8A2B8B2B43
:1023F00009F4BECFF8948091B0059091B105A091F9
:10240000B205B091B3054091AC055091AD05609116
:10241000AE057091AF05841B950BA60BB70B80938F
:10242000500B9093510BA093520BB093530B76CF5C
:10243000C0920502D0920602E0920702F0920802D2
:10244000C901FF90EF90DF90CF9008952091DB1CA1
:1024500030E08091D81C8C718C3009F496C0E091EA
:10246000CC1CF091CD1C6091490B70914A0B80916E
:10247000B1079091B2078E1B9F0B0F941185261701
:1024800037070CF05DC0621B730B7093710560938E
:1024900070056091490B70914A0B8091AF07909144
:1024A000B0078E1B9F0B0F941185261737070CF072
:1024B00065C0621B730B70936F0560936E0560912E
:1024C000490B70914A0B8091AD079091AE078E1B1E
:1024D0009F0B0F941185261737070CF048C0621B1D
:1024E000730B70936D0560936C056091490B70914F
:1024F0004A0B8091AB079091AC078E1B9F0B0F94FA
:102500001185261737076CF5621B730B70936B05EB
:1025100060936A056091490B70914A0B8091A907FD
:102520009091AA078E1B9F0B0F94118526173707D2
:1025300074F4621B730B70935A05609359050895E8
:10254000161617060CF4A1CF620F731F9ECF161636
:1025500017068CF3620F731F70935A056093590529
:1025600008951616170694F2620F731FCFCF161632
:1025700017060CF4B6CF620F731FB3CF16161706EB
:102580000CF499CF620F731F96CF8091D11C81FDFF
:1025900066CF220F331F63CFEF92FF920F931F93EB
:1025A000CF93DF930091DB1C10E08091D81C8C71DD
:1025B0008C3009F4F9C0F80130E020E0E090CC1C48
:1025C000F090CD1C6091490B70914A0B8091B1073E
:1025D0009091B2078E199F090F941185615071096E
:1025E000E617F7070CF0CFC06E1B7F0BC0919B0561
:1025F000D0919C05C617D70720F4061717070CF0D3
:10260000D1C02C0F3D1F922F832F6217730710F438
:10261000962F872F90937005809371056091490BD9
:1026200070914A0B8091AF079091B0078E199F0966
:102630000F94118561507109E617F7070CF09CC0E3
:102640006E1B7F0BC617D70720F4061717070CF071
:10265000A7C0922F832F6217730710F4962F872F2E
:1026600090936E0580936F056091490B70914A0BB2
:102670008091AD079091AE078E199F090F94118537
:1026800061507109E617F7070CF06FC06E1B7F0BE6
:10269000C617D70720F4061717070CF07FC0922F34
:1026A000832F6217730710F4962F872F90936C0572
:1026B00080936D056091490B70914A0B8091AB0737
:1026C0009091AC078E199F090F9411856150710983
:1026D000E617F7070CF042C06E1B7F0BC617D70733
:1026E00020F4061717070CF057C0922F832F62179C
:1026F000730710F4962F872F90936A0580936B05CC
:102700006091490B70914A0B8091A9079091AA079B
:102710008E199F090F94118561507109E617F7070B
:10272000BCF46E1B7F0BC617D70718F406171707E4
:102730008CF52617370708F09B0130935A05209334
:102740005905DF91CF911F910F91FF90EF90089560
:102750001616170644F36E0F7F1FE5CF16161706E1
:102760000CF4BCCF6E0F7F1FB9CF161617060CF4F2
:102770008FCF6E0F7F1F8CCF161617060CF462CF0B
:102780006E0F7F1F5FCF161617060CF42FCF6E0F3C
:102790007F1F2CCFBE01CDCFBE01A7CFBE017FCF03
:1027A000BE0157CFBE012DCF8091D11C81FD03CF3B
:1027B0009801F801EE0FFF1F01CFCF92DF92EF9249
:1027C000FF92E091B805F091B9051995893621E09D
:1027D000920734F088569140893621E09207D4F769
:1027E0002091CC1C3091CD1C821B930B2091471F54
:1027F0002370223031F42091451D3091461D821BFB
:10280000930B4091481D9C01220F331F50E0A0E024
:10281000B1E0A41BB50B0F94F6856B017C01A09170
:102820000A1FB0910B1F9A010F94FE85C60ED71E8A
:10283000E81EF91ECD2CDE2CEF2CFF24E7FCFA94C9
:10284000D0920B1FC0920A1FFF90EF90DF90CF90A5
:102850000895E4E1FFE1158E168E178E10A2A38570
:10286000B4858D919D910D90BC91A02D81A392A3D3
:10287000A3A3B4A3118E128E138E148E1092BD1EBC
:102880001092BC1EF894EFE6F0E080818D7F80838B
:1028900080913507E0913607F09137079081809558
:1028A0008923808378940895CF92DF92EF92FF92EC
:1028B000AB01DC011396FC91139711962D913C917D
:1028C000EF2FEF712115310539F52F2FFF0F330B46
:1028D000220F232F221F330B8FEF9FEF0E2E02C0EC
:1028E000880F991F0A94E2F780959095BA01770FA7
:1028F000660B762F86239723840F951F02C095952C
:102900008795EA95E2F782279327821B930BFF9026
:10291000EF90DF90CF900895DB010F94F6856C0166
:10292000FF24D7FCF094EF2CC601F6FF0EC02F2F2A
:10293000FF0F330B220F232F221F330BCA018227D5
:102940009327821B930B8C0D9D1D02C09595879537
:10295000EA95E2F797FD0196FF90EF90DF90CF9018
:1029600008950F931F93CF93DF939091931E96FF3B
:102970003EC0082F84E08093CA0D10E00F37110588
:1029800034F5E801CC0FDD1FCC0FDD1FC55ADC4F3D
:1029900088819981AA81BB818B2F0F94CB4F68814D
:1029A00079818A819B810F94CB4F88819981AA81FB
:1029B000BB81892F0F94CB4F88819981AA81BB81DC
:1029C0000F94CB4F0F5F1F4F0F371105D1F680913A
:1029D000931E8F7B8093931E1092CA0D1092D40782
:1029E0001092D307DF91CF911F910F9108954CEF73
:1029F00051E061E06093880F90918B0F80918C0F74
:102A0000E091800FF091810F981709F45CC020913C
:102A10008B0F30E02F5F3F4F2F733327922F03C070
:102A20000FB607FE20C080918C0F9817C9F3E09174
:102A30008B0FF0E0E353F04F10829FB7F894209390
:102A40008B0FE091820FF091830F808180628083F1
:102A50009FBF4150510971F61092CA0DDF91CF917D
:102A60001F910F910895808185FFDDCFE0918C0F3C
:102A7000F0E0E353F04F8081E0918C0FF0E031966D
:102A8000EF73FF27E0938C0FE091860FF091870F93
:102A90008083E091800FF091810F8081837080644A
:102AA000808370918B0F80918C0F781307C0E09119
:102AB000820FF091830F80818F7D8083E091800F62
:102AC000F091810FB0CF808185FFA1CF9FB7F8949F
:102AD000E091860FF091870F1082E091800FF091C6
:102AE000810F80818370806480839FBFB2CFCF933A
:102AF000C82F0F944650892BE1F38C2FCF910D9462
:102B0000CB4FCF93C82F892F0E9477158C2FCF9151
:102B10000C9477150F931F930F94F05B00917C0238
:102B200010917D0220917E0230917F02601B710B1B
:102B3000820B930B21E0693B7B408105910508F4F2
:102B400020E0822F1F910F910895CF93DF930F9470
:102B5000755F609366057093670580936805909331
:102B600069058091660590916705A0916805B0910F
:102B700069054091A1055091A2056091A30570914E
:102B8000A405841B950BA60BB70B80937605909339
:102B90007705A0937805B09379054091760550911B
:102BA000770560917805709179058091A8059091DD
:102BB000A905A091AA05B091AB05481759076A0766
:102BC0007B0708F464C08091660590916705A09129
:102BD0006805B09169058093A1059093A205A09323
:102BE000A305B093A4058091760590917705A091F7
:102BF0007805B0917905B695A79597958795B6957F
:102C0000A795979587958093A8059093A905A0937C
:102C1000AA05B093AB058091E207882309F44EC062
:102C20004091B41E5091B51E6091B61E7091B71EB2
:102C30008091D71C90E0B0E0A0E084179507A6072C
:102C4000B707E0F58091DB1C90E02091B40530914E
:102C5000B5058217930791F04091B41E5091B51EAF
:102C60006091B61E7091B71E433051056105710524
:102C700028F02091F11E2F5F2093F11E2091D21C8D
:102C800027FF4AC09093B5058093B40545C0809155
:102C9000500B9091510BA091520BB091530BB695E4
:102CA000A795979587958093A8059093A905A093DC
:102CB000AA05B093AB05DF91CF9108950F94755F8E
:102CC0006093CF077093D0078093D1079093D2077A
:102CD000C091DB1C2C2F30E050E040E060E87DE844
:102CE0008BE590E00F94258520934B0B30934C0B94
:102CF00040934D0B50934E0BD0E0D093B505C0934D
:102D0000B4051092DE071092DF071092E0071092D0
:102D1000E10783E08093E20781E080936505DF911E
:102D2000CF910895CF92DF92EF92FF920F94755F4B
:102D300060936605709367058093680590936905B5
:102D40008091660590916705A0916805B09169052D
:102D50004091A1055091A2056091A3057091A40531
:102D6000841B950BA60BB70B809376059093770584
:102D7000A0937805B09379058091A1059091A20563
:102D8000A091A305B091A405892B8A2B8B2BC1F4AC
:102D900010927605109277051092780510927905B9
:102DA0008091660590916705A0916805B0916905CD
:102DB0008093A1059093A205A093A305B093A405C9
:102DC000409176055091770560917805709179056D
:102DD0008091A8059091A905A091AA05B091AB0595
:102DE000481759076A077B07C0F18091D41C8F7779
:102DF000813009F483C0811120C081E08093650592
:102E00008091760590917705A0917805B09179052C
:102E1000B695A795979587958093A8059093A90552
:102E2000A093AA05B093AB058091A6059091A70544
:102E300001969093A7058093A605809166059091D1
:102E40006705A0916805B09169058093A1059093ED
:102E5000A205A093A305B093A4058091411F85FF0F
:102E600048C080916505882309F443C0E091B80506
:102E7000F091B9051995893621E0920734F088560A
:102E80009140893621E09207D4F72091CC1C3091F3
:102E9000CD1C821B930B2091471F2370223031F4ED
:102EA0002091071E3091081E821B930B4091481DF4
:102EB0009C01220F331F50E0A0E0B1E0A41BB50B32
:102EC0000F94F6856B017C01A091F61EB091F71E60
:102ED0009A010F94FE85C60ED71EE81EF91ECD2C52
:102EE000DE2CEF2CFF24E7FCFA94D092F71EC09260
:102EF000F61EFF90EF90DF90CF9008958091A1058E
:102F00009091A205A091A305B091A40540919D05C3
:102F100050919E0560919F057091A005841B950BB3
:102F2000A60BB70BAC01BD01440F551F661F771FE1
:102F3000840F951FA61FB71FB695A79597958795E0
:102F40008093610590936205A0936305B093640537
:102F50008091A1059091A205A091A305B091A4052F
:102F600080939D0590939E05A0939F05B093A00527
:102F700040917605509177056091780570917905BB
:102F80008091610590916205A0916305B0916405FF
:102F9000481759076A077B0730F48091A60590917E
:102FA000A705049788F081E090E09093A7058093AF
:102FB000A605809365051092A8051092A9051092A8
:102FC000AA051092AB0539CF8091760590917705CF
:102FD000A0917805B0917905B695A79597958795B5
:102FE000B695A795979587958093A8059093A90581
:102FF000A093AA05B093AB058091A6059091A70573
:1030000001969093A7058093A60517CF0F931F9362
:103010002091931E26FD21C02091F41E222301F150
:1030200041111BC0E091D307F091D407EE0FFF1FB1
:10303000EE0FFF1FE55AFC4F6083718382839383F9
:103040008091D3079091D4078E37910508F460C022
:103050008091931E80648093931E1F910F91089519
:103060008091F51E8823C9F3E091D307F091D4072E
:10307000E452FD4F1082E0918D05F0918E05808124
:1030800090918C05892309F054C0E0918A05F09154
:103090008B05808190918905892349F0E091D307C0
:1030A000F091D407E452FD4F8081826080834423F5
:1030B00049F0E091D307F091D407E452FD4F8081AD
:1030C000846080838091E207882349F0E091D307F0
:1030D000F091D407E452FD4F808188608083009195
:1030E000D3071091D4070F94755F000F111F000FC5
:1030F000111FF801E55AFC4F60837183828393832B
:103100008091D3079091D4078E37910508F0A0CF16
:103110008091D3079091D40701969093D407809320
:10312000D3078091931E8F7B8093931E1F910F91E5
:103130000895E091D307F091D407E452FD4F8081C8
:1031400081608083A2CF80914F0B8F7D80934F0B46
:1031500080914F0B806280934F0B80918F0683305C
:10316000E1F0823081F0813029F4E0918D06F09118
:103170008E0619958091F51E882321F080914F0BC2
:1031800085FD15C00895E0918A05F0918B05808139
:1031900090918905892349F3EDCFE0918A05F0915B
:1031A0008B058081909189058923F9F6E3CF6091A1
:1031B000760570917705809178059091790541E0C9
:1031C0000C940618CF93DF9380914F0B8F7D8093E3
:1031D0004F0B80919306833009F481C08230B9F09F
:1031E0008130F1F4E0919106F09192061995809169
:1031F000F41E882301F180914F0B85FD7BC091E087
:103200008091F51E81111CC0DF91CF910895E0914E
:103210008D05F0918E05808190918C05892311F3A5
:103220008091F41E882339F080914F0B85FFE7CF02
:10323000DF91CF91089590E08091F51E882321F3CE
:1032400040917205509173056091740570917505F8
:103250008091931E86FDD8CFE091D307F091D407DB
:10326000911155C0E452FD4F1082E0918D05F0910F
:103270008E05808190918C05892309F06EC0E091C4
:103280008A05F0918B05808190918905892349F009
:10329000E091D307F091D407E452FD4F8081826022
:1032A00080838091E207882349F0E091D307F09171
:1032B000D407E452FD4F808188608083C091D3079A
:1032C000D091D4070F94755FCC0FDD1FCC0FDD1F9D
:1032D000C55ADC4F688379838A839B8322C0E0913F
:1032E0008D05F0918E05808190918C05892309F0E0
:1032F00079CF96CF609172057091730580917405B6
:103300009091750540E0DF91CF910C940618EE0F77
:10331000FF1FEE0FFF1FE55AFC4F4083518362836E
:1033200073838091D3079091D4078E37910530F045
:103330008091931E80648093931E66CF8091D30703
:103340009091D40701969093D4078093D3078091EE
:10335000931E8F7B8093931E57CFE091D307F091FC
:10336000D407E452FD4F80818160808388CF8F92A3
:103370009F92AF92BF92FF920F931F93CF93DF93D1
:10338000F894C091B405D091B5058090CF07909086
:10339000D007A090D107B090D207F09065050F94A8
:1033A000755F609382057093830580938405909385
:1033B00085057894209719F4C091DB1CD0E08091AA
:1033C000490B90914A0B2197C89F8001C99F100D0E
:1033D000D89F100D1124C091CC1CD091CD1C6091B0
:1033E0008205709183058091840590918505681907
:1033F00079098A099B090F94965A8C0F9D1F800F9B
:10340000911FFF2011F088599E4F803D22E09207C6
:1034100014F0805D92402091BE073091BF072817BD
:10342000390714F4821B930B97FF02C0820F931F7E
:10343000DF91CF911F910F91FF90BF90AF909F9020
:103440008F900895CF92DF92EF92FF92CF93DF9308
:10345000F8942091B4053091B50590916505C09020
:10346000CF07D090D007E090D107F090D2077894A2
:103470004091490B50914A0B21503109249FE001A2
:10348000259FD00D349FD00D11242091CC1C30915C
:10349000CD1CC20FD31F992321F08091D11C81FF35
:1034A00033C00F94755F609382057093830580939A
:1034B0008405909385056C197D098E099F090F94E9
:1034C000965A8C0F9D1F803D22E092074CF0805D44
:1034D0009240DF91CF91FF90EF90DF90CF900895D1
:1034E0002091BE073091BF072817390714F4821BBB
:1034F000930B97FFEECF820F931FDF91CF91FF9039
:10350000EF90DF90CF900895C859DE4FCACFCF9289
:10351000DF92EF92FF920F931F93CF938091210D33
:1035200080739091D81C90FD1EC0803109F469C051
:103530008032F1F48091031F833009F429C108F42B
:10354000E7C0853009F4D9C008F437C1863081F46A
:103550008091290D28EC829FC00111249093BD1EFB
:103560008093BC1E05C0803159F0803209F487C0B9
:10357000CF911F910F91FF90EF90DF90CF90089522
:103580008091031F833009F4E8C008F498C08530A7
:1035900009F4E0C008F4A1C0C091290D863041F7BC
:1035A000C090451ED090461EE090591EF12CEE0CA6
:1035B000FF1C04E715E124E635E144E255E168E04B
:1035C0008DE195E10F94DA62C89F90011124369540
:1035D000279536952795ABE7B4E10F94BC85969572
:1035E0008795880F991F880F991F811522E09207F0
:1035F00008F458C08FEF91E09093B91E8093B81EE5
:10360000B7CF8091031F833009F4AAC008F44FC0DC
:10361000853009F49CC008F463C0C091290D863040
:1036200009F0A6CFC090451ED090461EE090591ECE
:10363000F12CEE0CFF1C04E715E124E635E144E231
:1036400055E168E08DE195E10F94DA62C89FC00111
:103650001124880F991F880F991F813127E2920743
:1036600010F080E197E29093BD1E8093BC1ECF9135
:103670001F910F91FF90EF90DF90CF900895809170
:10368000031F833009F46FC008F452C0853059F12C
:1036900008F49EC0863009F06BCF8091290D90E030
:1036A000880F991F9093B91E8093B81E61CF813007
:1036B00089F0C091250D823009F4B4CF59CF813003
:1036C00031F0C091250D823009F46ACF51CFC091FD
:1036D000240D66CFC091240DA5CFC091270D60CFDA
:1036E000C091270D9FCF8091280D90E0880F991FE2
:1036F0009093B91E8093B81E3BCF8091280D28EC83
:10370000829FC00111249093BD1E8093BC1E30CFB8
:10371000813099F1823009F02BCF8091250D28EC72
:10372000829FC00111249093BD1E8093BC1E20CFA8
:103730008130C9F1823009F01BCF8091250D90E0D6
:10374000880F991F9093B91E8093B81E11CFC09116
:10375000280D68CFC091280D23CFC091260D20CF12
:10376000C091260D5FCF8091260D90E0880F991FA4
:103770009093B91E8093B81EFBCE8091240D28EC47
:10378000829FC00111249093BD1E8093BC1EF0CE79
:103790008091260D28EC829FC00111249093BD1EBC
:1037A0008093BC1EE5CE8091240D90E0880F991F78
:1037B0009093B91E8093B81EDBCE8091270D28EC24
:1037C000829FC00111249093BD1E8093BC1ED0CE59
:1037D0008091270D90E0880F991F9093B91E8093D8
:1037E000B81EC6CE8F929F92AF92BF92CF92DF92B9
:1037F000EF92FF920F931F936A0159018C01095CAC
:103800001F4F9C01255D3F4FAC01495F5F4F7B011E
:1038100066E00F94DA62282F2B51330BD901C501D2
:1038200024363105B1F095010F94FE852EE33AE080
:1038300047ED53EA0F94058600E20F943286490162
:103840005A0186E0B694A794979487948A95D1F705
:10385000C4011F910F91FF90EF90DF90CF90BF9028
:10386000AF909F908F9008954F925F926F927F924A
:103870008F929F92AF92BF92CF92DF92EF92FF9280
:103880000F931F93CF93DF93CDB7DEB768970FB633
:10389000F894DEBF0FBECDBF8091010B803109F4DB
:1038A000CAC1883009F43DC189ED9FEF6091671E60
:1038B0007091681E1091961E681779070CF42FC539
:1038C000177F1093961E8091000B803109F43DC53F
:1038D000883009F495C51092811E80E0282F30E0D1
:1038E000A4E6B0E00F94BC852EE33AE047ED53EA3E
:1038F0000F94058600E20F94328649015A01E6E0F2
:10390000B694A79497948794EA95D1F7812F827003
:1039100011FD0FC180918805082F0470702E82FD63
:1039200004C02091FF1E211135C01091A71E609187
:10393000671E7091681E685D7F4F80EE9AE00F945D
:103940008937181719060CF03FC58091961E81FD26
:103950003DC584608093961E6091671E7091681EBD
:10396000685D7F4F80EF9AE00F9489379C012C5956
:103970003F4F1092D00237FF02C030E020E02F3FCF
:10398000310519F014F02FEF30E01091961E412F01
:103990004270742EA22F2093FF1E2436B9F0B0E09F
:1039A000A50194010F94A9852EE33AE047ED53EA6F
:1039B0000F94058600E20F94328649015A0166E0B1
:1039C000B694A794979487946A95D1F77110BBC069
:1039D00090910B1E8091D102891708F045C060912B
:1039E000671E7091681E685D7F4F80EC9AE00F94AF
:1039F00089379C01220F331F220F331F280F391FD5
:103A0000A4E6B0E00F94BC852091FF1E30E050E0AA
:103A100040E00F94588569017A010091D10224E6B3
:103A200030E040E050E02C193D094E095F09A02F1D
:103A3000B0E00F94A98520910B1E30E050E040E0EB
:103A40000F942585C20ED31EE41EF51ED60180916B
:103A50008805A436B10508F0B1C41091961E82FF06
:103A600003C00F5F0093D10200914B0D802F837034
:103A7000813009F49EC0811149C4C090591E8091C3
:103A80005D1EC81ADD082FE02C9DC0012D9D900DF4
:103A9000112490935C1E80935B1E812F807324E61B
:103AA00030E009F4F4C0F12CE12C0F94755F009123
:103AB0008F1E1091901E2091911E3091921E6017C2
:103AC00071078207930708F4BEC08091961E182FD5
:103AD0001F7C812F1093961E00914B0D902F937099
:103AE000913009F4A1C4911182C410925C1E10920D
:103AF0005B1E20915D0D30E0D7FE03C0D194C194D0
:103B0000D1082C153D050CF4A2C510925C1E109234
:103B10005B1E24E630E030937F1E20937E1E182F1C
:103B2000CDC1E091050BF091060B81858752990B71
:103B3000BDCE1B7F1093961E94E69093FF1E782EA9
:103B4000772009F445CF6091671E7091681E685D0B
:103B50007F4F80EC9AE00F948937DC01AA0FBB1FDE
:103B6000AA0FBB1FA80FB91F1092D1021091961E69
:103B7000A436B10509F478CFA50194010F94A98565
:103B80002EE33AE047ED53EA0F94058600E20F94E6
:103B9000328649015A0126E0B694A79497948794F7
:103BA0002A95D1F700914B0D802F8370813009F059
:103BB00062CFE090501EF090511E8091CD07909101
:103BC000CE07E81AF90A2091C9073091CA07409137
:103BD000CB075091CC078091C5079091C607A09163
:103BE000C707B091C807281B390B4A0B5B0B60E471
:103BF00072E48FE090E00F94258529833A834B830C
:103C00005C836D837E838F83988729813A812E9D83
:103C1000C0012F9D900D3E9D900D112490935F1E2D
:103C200080935E1E812F807324E630E009F424C463
:103C3000D12CC12C3ACFE091050BF091060B828973
:103C40009389879733CEA0917E1EB0917F1E9D01F0
:103C500000914B0D902F93708091961E182F9130EC
:103C600009F4F7C3911109C140915B1E50915C1E8C
:103C700057FF03C05195419551099091D202941775
:103C800015060CF0E8C4182F1F7C1093961ED7FE63
:103C900003C0D194C194D10880915D0D8C151D0491
:103CA0000CF04FC780915B1E90915C1E97FF03C084
:103CB00091958195910940915B0D481719060CF07B
:103CC000C8C48093D2020F94755F6B017C01209170
:103CD0005C0D30E0A0E1B7E20F94BC85C60ED71EA4
:103CE000E81EF91EC0928F1ED092901EE092911E87
:103CF000F092921E80915B1E90915C1E97FDF2C621
:103D00002091961E20612093961E6AE070E00F9429
:103D1000118580E29BE00F9489377C014091830DEF
:103D200014E6419FA0011124E091840D2091451ECD
:103D30003091461E42175307C0F5E19FF001112450
:103D4000E217F30708F4FAC6241B350BA4E6B0E02B
:103D50000F94BC859F01241B350B032E000C440BD4
:103D6000550B0F945885121B212F30E0D7010F946B
:103D7000FE852EE33AE047ED53EA0F94058600E214
:103D80000F94328629873A874B875C876D877E87B9
:103D90008F87988BE984FA840B851C8586E01695BD
:103DA0000795F794E7948A95D1F78091671E9091D3
:103DB000681E60916F0D70E09B01285231098217D7
:103DC00093070CF053C0E0914A0DF0E02091490DAB
:103DD000AF0147525109841795070CF48EC6889697
:103DE000AC014E1B5F0B34E6349FC001359F900D34
:103DF00011246E1B7F0B0F941185361BE22FE456A6
:103E0000FF0BDF01232F30E00F94FE852EE33AE015
:103E100047ED53EA0F94058600E20F943286298716
:103E20003A874B875C876D877E878F87988B8985DC
:103E30009A85AB85BC85E6E0B695A795979587955D
:103E4000EA95D1F78C599F4F8E9D90018F9D300D33
:103E50009E9D300D11243695279536952795ABE715
:103E6000B4E10F94BC857C01F694E79400914B0D6E
:103E70001091961ED701AC59BF4FB0937F1EA093EF
:103E80007E1E05FF02C015FF19C0A436B105B1F0B2
:103E9000A50194010F94A9852EE33AE047ED53EA7A
:103EA0000F94058600E20F94328649015A0176E0AC
:103EB000B694A794979487947A95D1F711FF09C087
:103EC0009091591E8091DE1C981718F0812C912C2E
:103ED00054018091411F982F9C7009F003C180917B
:103EE0008E0D87FD9FC184E68093801E6091781EB1
:103EF00070E080EA9AE00F948937A82F8093821EA1
:103F000090914B0D92FFD3C09091630D899FC0019A
:103F100011249093E8078093E70784E68093821E3C
:103F200060916B1E70916C1E685D7F4F80E89AE017
:103F30000F9489378093831E8436C1F0A82FB0E098
:103F4000A50194010F94A9852EE33AE047ED53EAC9
:103F50000F94058600E20F94328649015A0146E02B
:103F6000B694A794979487944A95D1F76091581E78
:103F700070E080E79AE00F9489378093841E84363E
:103F8000C1F0A82FB0E0A50194010F94A9852EE3FC
:103F90003AE047ED53EA0F94058600E20F9432862B
:103FA00049015A0136E0B694A794979487943A95BC
:103FB000D1F710916E0D11FD58C184E68093861ED5
:103FC00084E68093871E8091AE1E811135C080915A
:103FD000AD1E811131C084E68093851E17FD4CC053
:103FE0008091931E8F7E8093931E8091931E84FDFB
:103FF00016C1D501C4018D3D45E09407A105B10569
:1040000020F08CED95E0A0E0B0E068960FB6F89453
:10401000DEBF0FBECDBFDF91CF911F910F91FF90FB
:10402000EF90DF90CF90BF90AF909F908F907F9058
:104030006F905F904F900895A091751FAC59A09319
:10404000851EA43659F2B0E0A50194010F94A9850C
:104050002EE33AE047ED53EA0F94058600E20F9411
:10406000328649015A0186E0B694A79497948794C2
:104070008A95D1F717FFB4CF8091931E84FF6BC14F
:104080008091081D1AE0819FC00111242091451ED6
:104090003091461E8217930738F49091591E8091F3
:1040A0000A1D981708F4A6C11092D40299CFA4361D
:1040B00009F436CFB0E0A50194010F94A9852EE351
:1040C0003AE047ED53EA0F94058600E20F943286FA
:1040D00049015A0156E0B694A794979487945A954B
:1040E000D1F71ECFE091651EE093891E2091A71E97
:1040F00090914B1F921708F49BC090918E0D97FDE5
:1041000097C09091931E94FDEECEF091801E609129
:104110009506709196064091ED075091EE0720911B
:10412000461F30E06417750750F460919506709152
:104130009606421B530B6417750708F04FC0409159
:10414000950650919606240F351F3093EE07209365
:10415000ED072091451F2752330B4091671E509168
:10416000681E421753070CF4BECE20914C1F94E6F4
:10417000299F900111244091451E5091461E2417FD
:10418000350708F049C03091591E20914D1F231763
:1041900008F442C01091651E20914A1F1217E0F5E5
:1041A0002091491F2117C0F53091A71E20914B1F68
:1041B000231790F52091931E24FD2EC0837009F0E3
:1041C00052C2E11708F054C48091481F90E08D5905
:1041D0009F4FF817190609F00CF4FF5FF093801E4B
:1041E000F43609F483CEAF2FB0E0A50194010F940B
:1041F000A9852EE33AE047ED53EA0F94058600E2E5
:104200000F94328649015A0166E0B694A7949794B8
:1042100087946A95D1F76ACE9093801E67CE90E01E
:1042200080E0F3CE8091651E8093891E8091A71E49
:10423000C090451ED090461EE090E81EF090E91E0A
:1042400002E117E122EF36E142EF55E160E18BEE4A
:1042500095E10F94DA62E82F8093891E8091411FC7
:10426000982F9C7009F04DCF3ECE60918D1E70E06E
:1042700080E19AE00F9489378093861E8436C1F0DE
:10428000A82FB0E0A50194010F94A9852EE33AE090
:1042900047ED53EA0F94058600E20F9432864901F8
:1042A0005A0126E0B694A794979487942A95D1F75B
:1042B00010916E0D11FF84CE60918E1E062E000CA3
:1042C000770B685D7F4F80EE99E00F94893780937C
:1042D000871E8436C1F0A82FB0E0A50194010F9489
:1042E000A9852EE33AE047ED53EA0F94058600E2F4
:1042F0000F94328649015A0196E0B694A794979498
:1043000087949A95D1F710916E0D5DCE912F907391
:1043100009F47CC0D12CC12CF12CE12CC6CB186047
:104320001093961E685D7F4F80E09BE00F94893765
:104330001091961E8093811E74E6872E912CA12CDD
:10434000B12C843609F4E2CAC9CAE091030BF0919A
:10435000040B8289EFCF9091591E80910A1D981706
:1043600008F0A2CE8091AD0D8852990B2091671E66
:104370003091681E281739070CF496CE2091081D3D
:104380008091091D90E03AE0239F800D911D11243A
:104390002091451E3091461E8217930708F084CE67
:1043A0008091D4029091AC0D891720F590918805E9
:1043B00092FF16CE8F5F8093D40212CE82FFD6CBAF
:1043C0000F5F0093D102D2CB8091961E2091480DB1
:1043D0009091D002921708F40BC1182F1B7F1093F5
:1043E000961E94E69093FF1E8270782EEFCAA4E684
:1043F000B0E043CD8091931E80618093931EF5CDF4
:10440000E091030BF091040B818594CF813009F486
:1044100066C384E690E090937F1E80937E1EA4E6A0
:10442000B0E005FD30CD4ACD10925F1E10925E1EA9
:1044300020915E0D30E0F7FE03C0F194E194F108A5
:104440002E153F050CF403C110925F1E10925E1EE4
:1044500060CB40915E1E50915F1E57FF03C0519587
:10446000419551099091D302941715060CF0F7C0AD
:10447000182F1F7C1093961EF7FE03C0F194E19451
:10448000F10880915E0D8E151F040CF028C38091F9
:104490005E1E90915F1E97FF03C0919581959109D3
:1044A00040915A0D481719060CF0D3C08093D302DF
:1044B0000F94755F6B017C0120915C0D30E0A0E1F1
:1044C000B7E20F94BC85C60ED71EE81EF91EC09237
:1044D0008F1ED092901EE092911EF092921E8091BB
:1044E0005E1E90915F1E97FDFDC22091961E206179
:1044F0002093961E6AE070E00F94118580E19BE0A6
:104500000F9489377C014091830D14E6419FA001EF
:104510001124E091840D2091451E3091461E4217D2
:104520005307C0F5E19FF0011124E217F30708F4E7
:104530000CC3241B350BA4E6B0E00F94BC859F018F
:10454000241B350B032E000C440B550B0F94588580
:10455000121B212F30E0D7010F94FE852EE33AE0A5
:1045600047ED53EA0F94058600E20F9432862987BF
:104570003A874B875C876D877E878F87988BE98426
:10458000FA840B851C8596E016950795F794E794B9
:104590009A95D1F78091671E9091681E60916F0D7A
:1045A00070E09B0128523109821793070CF05ECC12
:1045B000E0914A0DF0E02091490DAF0147525109B9
:1045C000841795070CF499C28896AC014E1B5F0BBB
:1045D00034E6349FC001359F900D11246E1B7F0B74
:1045E0000F941185361B822F8456990BDC010ACC5F
:1045F00084608093961E6091671E7091681E685D4E
:104600007F4F80EF9AE00F9489376C01990FEE0885
:10461000FF081091D00222273327A9012C193D0948
:104620004E095F09A12FB0E00F94A9852091480D94
:1046300030E050E040E00F9425852C0D3D1D4E1DCF
:104640005F1D2C593F4F1F5F1093D00294C924E681
:1046500030E0D90112CC807309F00FCC18CB8073F5
:1046600009F00BCC09CF823009F0D6CDA091481FBC
:10467000CA2ED12CF12CE12CB0E0B195A195B10955
:104680000091921CAD010B2E000C660B770B4C15A4
:104690005D056E057F050CF061C028EE33E00F94D8
:1046A000FE852B013C0140928A1C50928B1C60922B
:1046B0008C1C70928D1CA8EEB3E0A70196010F949C
:1046C000A98560938E1C70938F1C8093901C90938F
:1046D000911C002309F442C0A091761CB091771C74
:1046E000CD90DD90ED90FC9013976C157D058E05B7
:1046F0009F050CF0E6C16D937D938D939C9313976A
:104700001091651E40917E1C50917F1C6091801C11
:104710007091811C80918E1C90918F1CA091901C97
:10472000B091911C84179507A607B7076CF080918C
:104730008A1C90918B1CA0918C1CB0918D1C4817E9
:1047400059076A077B0744F480937E1C90937F1C73
:10475000A093801CB093811CE091891E2091441F7E
:10476000C090431F8091421F90E0B0E0A0E0809392
:104770005A1C90935B1CA0935C1CB0935D1CD12CC5
:10478000F12CE12CC0925E1CD0925F1CE092601C68
:10479000F092611C422F50E070E060E04093621C98
:1047A0005093631C6093641C7093651C8093661C1B
:1047B0009093671CA093681CB093691CC0926A1CFC
:1047C000D0926B1CE0926C1CF0926D1C3AE0239F1F
:1047D00020011124052C000C6608770840926E1CFD
:1047E00050926F1C6092701C7092711C4091721CF0
:1047F0005091731C4130510579F5B095A095909575
:1048000081959F4FAF4FBF4F8093661C9093671C5D
:10481000A093681CB093691CF094E094D094C09469
:10482000C11CD11CE11CF11CC0926A1CD0926B1CF3
:10483000E0926C1CF0926D1C7094609450944094C3
:10484000411C511C611C711C40926E1C50926F1CCB
:104850006092701C7092711C812F90E0B0E0A0E01B
:104860008093561C9093571CA093581CB093591CCE
:104870008E2F90E0B0E0A0E080934E1C90934F1CF0
:10488000A093501CB093511C002309F4A7CC8FB700
:10489000F894E090410BF090420B0091430B109183
:1048A000440BE98AFA8A0B8B1C8B8FBF80917A1C90
:1048B00090917B1CA0917C1CB0917D1CE81AF90A98
:1048C0000A0B1B0BD801C7018093861C9093871C91
:1048D000A093881CB093891CE091741CF091751C06
:1048E000008111812281338109871A872B873C87B8
:1048F000E091781CF091791C80819181A281B38133
:104900007C018D0129853A854B855C85E21AF30A85
:10491000040B150BED8AFE8A0F8B188F60916A1CB1
:1049200070916B1C80916C1C90916D1CA80197017B
:104930000F94CB8540907E1C50907F1C6090801C13
:104940007090811C460E571E681E791E40927E1C78
:1049500050927F1C6092801C7092811CC0908E1CB3
:10496000D0908F1CE090901CF090911CC414D50442
:10497000E604F7040CF08CC0C0927E1CD0927F1C21
:10498000E092801CF092811C260137016091661C28
:104990007091671C8091681C9091691C2D893E89DB
:1049A0004F89588D0F94CB85460E571E681E791E71
:1049B0008091821C9091831CA091841CB091851CD5
:1049C00029853A854B855C85281B390B4A0B5B0B87
:1049D00060916E1C70916F1C8091701C9091711C85
:1049E0000F94CB85461A570A680A790AC414D5046D
:1049F000E604F7047CF0C0908A1CD0908B1CE090F9
:104A00008C1CF0908D1CC414D504E604F70414F437
:104A1000730162016090761C7090771CC701B6012B
:104A200028EE33E040E050E00F942585D3012D932C
:104A30003D934D935C931397E984FA840B851C8511
:104A4000E092821CF092831C0093841C1093851CBE
:104A500009891A892B893C8900937A1C10937B1C45
:104A600020937C1C30937D1CF091521CFC59B6CBDA
:104A70001E1708F0B3CB2091481F84E690E0821BFC
:104A80009109F817190609F00CF4A8CBF150A6CB40
:104A900080918A1C90918B1CA0918C1CB0918D1CD4
:104AA000481659066A067B060CF070CF80937E1C70
:104AB00090937F1CA093801CB093811C2C013D011E
:104AC00065CFC414D504E604F7040CF01BCE4D9258
:104AD0005D926D927C9213971091651E13CE80911A
:104AE000961EB2CC1091961E10621093961E0091E5
:104AF0004B0DA091C70DB0E0C0C930E0D7010F94B5
:104B0000FE852EE33AE047ED53EA0F94058600E276
:104B10000F94328629873A874B875C876D877E871B
:104B20008F87988BE984FA840B851C85B6E01695EF
:104B30000795F794E794BA95D1F798C9F12CE12C31
:104B400034C98091961E0C94851DF12CE12C22CD48
:104B5000982F803110F00F94F287E82FF0E088272B
:104B6000EB54FA4D8F4F0D94E785FA25FC25E2258D
:104B7000022609260F2616261C264426812688266C
:104B80008F269726BA26C525E925603281E0780769
:104B9000F0F482E397E16F3F710509F008F422C158
:104BA0006031F1E07F0708F042C1660F770B861B8A
:104BB000970BFC01EB5DFE4F608171818FE492E009
:104BC0000C945414603221E0720708F4DAC080E0DB
:104BD00008956035710508F4DAC06F3F710509F07A
:104BE000B0F76055710988E59BE0680F791FFB01FC
:104BF00080810895892F08956038710540F788E411
:104C00009DE0F3CF603231E0730708F789E798E160
:104C1000C2CF60387105D8F68CEC9CE1E6CF6032EB
:104C200081E07807A0F68BEE95E1B5CF603871058D
:104C300070F681E49FE1D9CF6035710508F4AAC010
:104C4000603A710508F4B1C0603F710508F0BFCF4C
:104C5000605A710984E895E1262F6034710508F4E3
:104C6000B8C06834710508F0F1C0205430E0220F5C
:104C7000331F821B930BFC01EB5AFF4F6081718144
:104C80008FE492E00C9454146033710508F485C0ED
:104C90006036710508F48EC06039710508F4B5C03E
:104CA000603C710508F4EDC0603F710508F4EEC08A
:104CB0006032E1E07E0708F4EEC06035F1E07F0786
:104CC00008F4EEC0603821E0720708F080CF60552C
:104CD000714089E691E1262F6432710508F486C09F
:104CE0006A32710508F096C0245230E0220F331F5B
:104CF000821B930BFC0165A976A98FE492E00C94CA
:104D00005414603C710508F062CF88E89CE06DCFD8
:104D1000603C710508F05BCF85E89DE166CF6032AD
:104D200031E0730708F053CF80EC99E134CF603560
:104D3000710550F1603A710598F1683B710508F012
:104D400046CF605A710960317105C8F1643171054F
:104D500008F089C06051E62FF0E0EE0FFF1FF195DB
:104D6000E195F109E15AFE4E608171818FE492E094
:104D70000C9454146038710508F029CF88E09CE049
:104D800034CF87E09BE107CF81E893E165CF86EBE5
:104D900094E162CF8DE195E15FCF8EE393E19BCF0C
:104DA0006055710988EE93E157CF605571098FE422
:104DB00094E152CF605371098BEF92E18CCFE62FD3
:104DC000E370EA5FEE0FE61BF0E0EE5BFE4E8781DC
:104DD00008952770245E220F261B820F911DFC016F
:104DE00087810895262F2F702858F5CF2BEA629FD0
:104DF000212D112426952695322F330F230F220FB4
:104E0000F62FF21B2F2F215FE6CF6056710988EB3A
:104E100092E161CF2A52220F330B821B930BFC01CC
:104E2000EF5BFF4F80819181959587950895605143
:104E3000262F30E0220F331F821B930BFC01EB5B0C
:104E4000FE4F808191819595879508952854220F72
:104E5000330B821B930BFC01EB59FF4F8081918137
:104E60009595879508956451660F770BEE27FF2778
:104E7000E61BF70BE959FE4E808191819595879548
:104E800008956059710985E792E125CF605C710949
:104E900082E392E120CF605F71098FEE91E11BCF39
:104EA000605271408CEA91E116CF803110F00F947E
:104EB000F287E82FF0E08827EF59F84D8F4F0D94D7
:104EC000E7859C27B627BD27C527CD27D427DC2714
:104ED0007127E32727282E283528542880289D2746
:104EE000A5276035710508F422C1603A710508F400
:104EF00029C1603F710500F5605A7109E4E8F5E1E8
:104F0000862F6034710508F431C16834710508F0EA
:104F10007CC1805490E0880F991FDF01A81BB90B5A
:104F2000AB5ABF4F84E6489FA00111244D935C9378
:104F30008FEF9FE79383828308956032E1E07E07DD
:104F400008F0EDC0E2E3F7E197C06035710508F4C1
:104F5000E8C06F3F710509F078F76055710988E581
:104F60009BE0680F791FFB0140830895603871054D
:104F700008F0CFC088E49DE0F4CF603281E078078C
:104F800008F0CCC0E7E0FBE177C06032E1E07E07EB
:104F900008F0C3C0E9E7F8E16FC06038710508F0B8
:104FA000BBC08CEC9CE1DDCF6032F1E07F0708F004
:104FB000B2C0EBEEF5E160C06038710508F0AAC040
:104FC00081E49FE1CECF6033710508F4B3C0603651
:104FD000710508F4BCC06039710508F4F1C0603C8B
:104FE000710508F431C1603F710508F432C16032C7
:104FF00081E0780708F432C16035E1E07E0708F40B
:1050000032C16038F1E07F0708F096CF60557140FB
:10501000A9E6B1E1862F6432710508F4BDC06A3299
:10502000710508F0D2C0845290E0880F991FFD01ED
:10503000E81BF90B84E6489FA001112456AB45AB51
:105040008FEF9FE713969C938E9312970895603C81
:10505000710508F05DC088E89CE083CF603C710575
:1050600008F055C085E89DE17CCF603281E078078B
:1050700008F04CC0E0ECF9E16F3F710509F008F46D
:1050800080C0603181E0780708F0AEC0660F770B12
:10509000DF01A61BB70BAB5DBE4F84E6489FA001A6
:1050A00011244D935C9344CF60357105E8F1603A6B
:1050B000710508F442C0683B710508F03DCF605AA5
:1050C00071096031710508F447C06431710508F059
:1050D000ABC06051E62FF0E0EE0FFF1FF195E195B8
:1050E000F109E15AFE4E84E6489FA0011124518344
:1050F00040838FEF9FE7909345118093441108956B
:105100006038710568F488E09CE02BCF089508951D
:1051100008950895089508950895089508950895A7
:105120000895E6EBF4E1ECCEE1E8F3E1E9CEEDE160
:10513000F5E1E6CEAEE3B3E16DCF60557109E8EE7F
:10514000F3E1DECE60557109EFE4F4E1D9CE6053AE
:105150007109ABEFB2E15ECFE62FE370EA5FEE0FCD
:10516000E61BF0E0EE5BFE4E4783C3CFA62FA77091
:10517000A45EAA0FA61BAE0FBF2FB11D17964C93AE
:10518000D7CEA62FAF70A858AA0FA61BAE0FBF2F61
:10519000B11D17964C93CCCE8BEA689F812D1124BC
:1051A00086958695982F990F890F880FE62FE81B13
:1051B000E15FEE0FE61BEA0FFB2FF11D478340CFA7
:1051C00060567109A8EBB2E125CF8A52880F990B7E
:1051D000FD01E81BF90BEF5BFF4F842F90E0880F78
:1051E000991F918380832CCF6051862F90E0880F88
:1051F000991FDF01A81BB90BAB5BBE4F842F90E05A
:10520000880F991F8D939C9393CE8854880F990B88
:10521000DF01A81BB90BAB59BF4F842F90E0880F5B
:10522000991F8D939C9384CE6451660F770BEE2764
:10523000FF27E61BF70BE959FE4E842F90E0880FFD
:10524000991F9183808355CF60597109A5E7B2E119
:10525000E1CE605C7109A2E3B2E1DCCE605F71096E
:10526000AFEEB1E1D7CE60527140ACEAB1E1D2CE3F
:105270002F923F924F925F926F927F928F929F9266
:10528000AF92BF92CF92DF92EF92FF920F931F9354
:10529000CF93DF93CDB7DEB7AD970FB6F894DEBFEF
:1052A0000FBECDBF2C016CA3633009F4EDC608F42A
:1052B000D6C62CA1243009F402C3253009F000C75A
:1052C0009C012B5B3E4F89509F4FA20149505109D1
:1052D0005EA34DA3E0E1F0E0FBA7EAA740EF5FEF9C
:1052E00058A74FA351E059A7EDA1FEA1E817F90770
:1052F00009F499C19BA38AA3A9014E5F5F4F5DA7E3
:105300004CA7CE0181961C01EE24E3946AE0862E20
:10531000912CA12CB12CFF24F394ECA5FDA5929126
:105320008291FDA7ECA7F9A5F13009F48DC6D82E1E
:1053300023E6EBE7F0E12D1508F08DC22D2D30E0CE
:1053400050E040E019A28101CA01B901A501940110
:105350000F945885605DF80162938F012115310526
:105360004105510589F73097E9F101900020E9F7EF
:10537000AF01F801415051094E175F0799F1619152
:10538000E092880F90918B0F80918C0FA091800FED
:10539000B091810F981709F406C320918B0F30E06C
:1053A0002F5F3F4F2F733327922F03C00FB607FE97
:1053B00099C280918C0F9817C9F3A0918B0FB0E020
:1053C000A353B04F6C939FB7F89420938B0FA09189
:1053D000820FB091830F8C9180628C939FBF4E1788
:1053E0005F0769F6EDE7F0E14491442399F1E0921B
:1053F000880F90918B0F80918C0FA091800FB091AE
:10540000810F981709F414C320918B0F30E02F5FA0
:105410003F4F2F733327922F03C00FB607FED7C21B
:1054200080918C0F9817C9F3A0918B0FB0E0A35314
:10543000B04F4C939FB7F89420938B0FA091820F9D
:10544000B091830F8C9180628C939FBF3196449171
:105450004111CDCF6AA07BA02AA53BA5620E731E89
:105460004AA15BA18A014615570509F497C0F801C6
:1054700021918F01EBE7F0E1243608F402C330E01C
:1054800050E040E019A26101CA01B901A5019401EF
:105490000F945885605DF60162936F012115310507
:1054A0004105510589F73097E9F101900020E9F7AE
:1054B000AF01F601415051094E175F0799F1619113
:1054C000F092880F90918B0F80918C0FA091800F9C
:1054D000B091810F981709F469C320918B0F30E0C8
:1054E0002F5F3F4F2F733327922F03C00FB607FE56
:1054F000FCC280918C0F9817C9F3A0918B0FB0E07C
:10550000A353B04F6C939FB7F89420938B0FA09147
:10551000820FB091830F8C9180628C939FBF4E1746
:105520005F0769F6EDE7F0E14491442399F1F092C9
:10553000880F90918B0F80918C0FA091800FB0916C
:10554000810F981709F477C320918B0F30E02F5FFC
:105550003F4F2F733327922F03C00FB607FE3AC376
:1055600080918C0F9817C9F3A0918B0FB0E0A353D3
:10557000B04F4C939FB7F89420938B0FA091820F5C
:10558000B091830F8C9180628C939FBF3196449130
:105590004111CDCF6016710609F069CFEBE6F2E05C
:1055A0004191E092880F90918B0F80918C0FA09188
:1055B000800FB091810F981709F4FBC320918B0FD6
:1055C00030E02F5F3F4F2F733327922F03C00FB66A
:1055D00007FE8EC380918C0F9817C9F3A0918B0F93
:1055E000B0E0A353B04F4C939FB7F89420938B0F28
:1055F000A091820FB091830F8C9180628C939FBF9A
:105600002DE632E02E173F0759F64AA15BA18FA184
:1056100098A5480F591F5BA34AA3EDA1FEA1E4176B
:10562000F50709F07ACE0FE710E108C080E79FE0A8
:105630000F94BF4E0F5F1F4F892B21F0F80164912B
:105640006111F4CFFCA1F53008F04FC5F33008F03C
:10565000FEC4F23009F02CC5320155E1650E711C13
:105660008DE1480E511C4614570409F4BBC032E0CA
:10567000430E511C42E0640E711CCE0181961C0148
:10568000FF24F3945AE0852E912CA12CB12CF20129
:10569000B291A2912F012CEE31E50F94FE859C0171
:1056A00035952795359527953595279535952795E2
:1056B00035952795122F37FD1395EBE7F0E114365A
:1056C00008F4E2C2212F30E050E040E019A281014D
:1056D000CA01B901A50194010F945885605DF801D4
:1056E00062938F01211531054105510589F73097E6
:1056F000E9F101900020E9F7AF01D80141505109CB
:10570000A417B50799F16D91F092880F90918B0FC6
:1057100080918C0FE091800FF091810F981709F420
:105720000DC420918B0F30E02F5F3F4F2F73332735
:10573000922F03C00FB607FE0CC380918C0F9817F1
:10574000C9F3E0918B0FF0E0E353F04F60839FB714
:10575000F89420938B0FE091820FF091830F80815A
:10576000806280839FBFA417B50769F6EDE7F0E17B
:105770004491442399F1F092880F90918B0F80917E
:105780008C0FA091800FB091810F981709F41BC462
:1057900020918B0F30E02F5F3F4F2F733327922FD5
:1057A00003C00FB607FEDEC380918C0F9817C9F3B4
:1057B000A0918B0FB0E0A353B04F4C939FB7F894D8
:1057C00020938B0FA091820FB091830F8C918062F8
:1057D0008C939FBF319644914111CDCF64147504D1
:1057E00009F055CF6DE080E79FE00F94BF4E892B05
:1057F00009F487C46AE080E79FE0AD960FB6F8949D
:10580000DEBF0FBECDBFDF91CF911F910F91FF90F3
:10581000EF90DF90CF90BF90AF909F908F907F9050
:105820006F905F904F903F902F900D94BF4E8C9152
:1058300085FF21C09FB7F894A091860FB091870F84
:105840004C93A091800FB091810F8C9183708064F4
:105850008C939FBF31964491442309F4E0C3E092B6
:10586000880F90918B0F80918C0FA091800FB09139
:10587000810F9817E1F220918B0F30E02F5F3F4F9F
:105880002F733327922F03C00FB607FE5BC08091A2
:105890008C0F9817C9F3A0918B0FB0E0A353B04FB2
:1058A0004C939FB7F89420938B0FA091820FB091E7
:1058B000830F8C9180628C939FBF3196CCCF9C01DB
:1058C0002B593F4FCF96F2013197FEA3EDA348E04D
:1058D00050E05BA74AA7E8EFFFEFF8A7EFA3F2E0DD
:1058E000F9A702CD8C9185FF64CDA0918C0FB0E01B
:1058F000A353B04F8C91A0918C0FB0E01196AF7371
:10590000BB27A0938C0FA091860FB091870F8C932B
:10591000A091800FB091810F8C91837080648C93E3
:1059200070918B0F80918C0F781307C0A091820F1C
:10593000B091830F8C918F7D8C93A091800FB0914B
:10594000810F37CD8C9185FFA2CFA0918C0FB0E055
:10595000A353B04F8C9160918C0F70E06F5F7F4FBD
:105960006F73772760938C0FA091860FB091870F8C
:105970008C93A091800FB091810F8C918370806483
:105980008C9350918B0F80918C0F581307C0A0916E
:10599000820FB091830F8C918F7D8C93A091800F9B
:1059A000B091810F74CF8C9185FFF7CC9FB7F8949D
:1059B000A091860FB091870F6C93A091800FB0914A
:1059C000810F8C91837080648C939FBFD5CC8C9118
:1059D00085FF26CDA0918C0FB0E0A353B04F8C91E2
:1059E00060918C0F70E06F5F7F4F6F7377276093CC
:1059F0008C0FA091860FB091870F8C93A091800F90
:105A0000B091810F8C91837080648C9350918B0F37
:105A100080918C0F581307C0A091820FB091830F13
:105A20008C918F7D8C93A091800FB091810FF8CCD9
:105A30008C9185FFE9CC9FB7F894A091860FB09127
:105A4000870F4C93A091800FB091810F8C91837040
:105A500080648C939FBF3196FACC8C9185FF21C0D6
:105A60009FB7F894A091860FB091870F3C93A091B7
:105A7000800FB091810F8C91837080648C939FBF55
:105A800031963491332309F4A8C1F092880F909194
:105A90008B0F80918C0FA091800FB091810F981780
:105AA000E1F240918B0F50E04F5F5F4F4F735527EE
:105AB000942F03C00FB607FE48C080918C0F981733
:105AC000C9F3A0918B0FB0E0A353B04F3C939FB7A5
:105AD000F89440938B0FA091820FB091830F8C911B
