:10000000F8FF022099010000DD0D0300950D0300AB
:10001000950D0300950D0300950D0300950D03004C
:10002000950D0300950D0300950D0300DD0D0300F4
:10003000DD0D0300950D0300F9000300FD00030032
:10004000DD0D0300DD0D0300DD0D0300DD0D0300FC
:10005000DD0D0300DD0D0300DD0D0300DD0D0300EC
:10006000DD0D0300DD0D0300DD0D0300DD0D0300DC
:10007000DD0D0300DD0D0300DD0D0300DD0D0300CC
:10008000DD0D0300DD0D0300DD0D0300DD0D0300BC
:10009000DD0D0300DD0D0300DD0D0300DD0D0300AC
:1000A000DD0D0300DD0D0300DD0D0300DD0D03009C
:1000B000DD0D0300DD0D0300DD0D0300DD0D03008C
:1000C000DD0D0300011B0300DD0D0300DD0D03004A
:1000D000DD0D0300DD0D0300DD0D0300DD0D03006C
:1000E000DD0D0300DD0D030011150100C51E01002B
:1000F000A54F0100DD0D0300DD0D0300DD0D030044
:10010000590303006D0303008103030095030300FB
:10011000DD0D0300491E0300DD0D0300DD0D0300AE
:10012000DD0D0300DD0D0300DD0D0300DD0D03001B
:10013000DD0D0300DD0D0300DD0D0300DD0D03000B
:10014000DD0D0300DD0D0300DD0D0300DD0D0300FB
:10015000DD0D0300DD0D0300DD0D0300011A0100BC
:10016000DD0D0300DD0D0300DD0D0300DD0D0300DB
:10017000DD0D0300DD0D0300DD0D0300DD0D0300CB
:10018000DD0D0300DD0D0300DD0D0300DD0D0300BB
:10019000DD0D0300DD0D0300584B4CF2205210B56D
:1001A0001A804DF628121A8000BF00BF30F01AFEE8
:1001B000534B4FF030621A60524A9A60524ADA60EA
:1001C000524B4FF470021A60514A136813F4807353
:1001D00004D150490B604FF4A85313604E4B1A786A
:1001E000110703D51A7842F008021A704B4B4C499C
:1001F0002A221A704B4A4C4B8B4204D252F8040FFD
:1002000043F8040BF8E7494B494900228B4202D2DC
:1002100043F8042BFAE74749474A002352F82300E2
:1002200041F823000133662BF8D1444B444A802126
:1002300003F8011B9342FBD1424B3E4A1A60424BEA
:100240008A221A70A3F5805324225A70A0221A70B1
:100250009A799207FCD59A79D406FCD43B4A9379D3
:1002600003F00C03082B394BF9D103221A714622F3
:100270005A719A799006FCD5344A9179334B4906E4
:10028000FBD5334A4FF08271116009215160202261
:100290001A709A7902F00C020C2AFAD12D4B2E4AD0
:1002A0001A602E4B2E4A1A6000225A60072243F829
:1002B000042C2C4AC3F80C2D62B630F0C9FF154B44
:1002C0001B68DA0705D5284830F024FF274B284A59
:1002D0001A60284B1B785B0609D5244C244B2268F6
:1002E0009A4204D1204830F015FF0023236030F0FB
:1002F0007FFD33F02DFB30F071FCFEE70E20054052
:1003000030800440823F04000100002B88ED00E0B3
:1003100010D0034014D0034002D0074000E0074053
:10032000D014FF1FF0900300F806FF1FD014FF1F2A
:100330006C72FF1F0002FF1F0000000000E400E0DD
:1003400056E400E008ED00E00050064000400640A2
:100350004480044004800440C010050014E000E024
:10036000BFD40100000020207C6DBC631CE0034072
:10037000A5C3945A00F00740FFFFFFFFFFFFFFFFF8
:10038000FFFFFFFFFFFFFFFFFFFFFFFFFFFFFFFF7D
:10039000FFFFFFFFFFFFFFFFFFFFFFFFFFFFFFFF6D
:1003A000FFFFFFFFFFFFFFFFFFFFFFFFFFFFFFFF5D
:1003B000FFFFFFFFFFFFFFFFFFFFFFFFFFFFFFFF4D
:1003C000FFFFFFFFFFFFFFFFFFFFFFFFFFFFFFFF3D
:1003D000FFFFFFFFFFFFFFFFFFFFFFFFFFFFFFFF2D
:1003E000FFFFFFFFFFFFFFFFFFFFFFFFFFFFFFFF1D
:1003F000FFFFFFFFFFFFFFFFFFFFFFFFFFFFFFFF0D
:10040000FFFFFFFFFFFFFFFFFFFFFFFFDEF9FFFF23
:1004100010B5054C237833B9044B13B10448AFF33E
:1004200000800123237010BDD014FF1F00000000C6
:10043000EC900300084B10B51BB108490848AFF316
:1004400000800848036803B910BD074B002BFBD0A0
:10045000BDE81040184700BF00000000D414FF1F83
:10046000EC900300D014FF1F0000000000BA70479A
:10047000F0B5002483B0114F114E40F6B83508E0B6
:100480003B680193019B32689B1AAB4214D8032C42
:100490000CD832F00BFA0028F2D032F0CBF902ABD4
:1004A00023440134032C03F8080CF2D9009803B05C
:1004B000BDE8F040FFF7DABF03B0F0BD8070FF1F6A
:1004C000F014FF1FF8B5A1B100250E4607462C46D3
:1004D00032F0A6FA08B92046F8BD785D32F094FAF9
:1004E0000128F8D10134A4B2B4422546F0D3204605
:1004F000F8BD0C46EFE700BF38B50446050A32F0F8
:100500008FFA0028FBD0284632F07EFAE4B232F0AF
:1005100087FA0028FBD02046BDE8384032F074BA94
:1005200030B583B0FFF7A2FF04460190C5B232F0A8
:1005300077FA0028FBD0284632F066FA9DF805507D
:1005400032F06EFA0028FBD0284632F05DFA9DF8B2
:10055000065032F065FA0028FBD0284632F054FAF3
:100560009DF8075032F05CFA0028FBD0284632F0A4
:100570004BFA204603B030BD10B582B08DF80700AD
:100580000120FFF7B9FF9DF8074032F049FA002833
:10059000FBD0204632F038FA01231A460DF107014C
:1005A000034827F079FBFFF7BBFF02B010BD00BF87
:1005B000EC14FF1F2DE9F84F1E4CDFF888801E4F0A
:1005C0008146A1F1020AA2F1020B04F140060025C6
:1005D000E179207A30F062F800B288FB0031C01770
:1005E000C0EBA10109B2203901EB810187FB012396
:1005F000C917C1EB63032833023423EAE37305F11F
:100600002102B4422AF8023F2BF8025F95B2DFD1F3
:100610000123402209490A4827F03EFB014648468B
:100620002BF0EEF848462BF0ADF80020BDE8F84F6F
:10063000FFF7A2BFF814FF1F398EE338FF14FF1F26
:10064000EC14FF1F6766666630B5884283B00446C7
:100650000D461AD32B1DA34202D8A0B203B030BD61
:10066000AAB201230E490F4827F016FBFFF7FEFE42
:1006700002AB651B43F8040DC5F104015819FFF7DF
:1006800021FF0444A0B203B030BD0548091B20443B
:10069000FFF718FF0444A542DCD9A0B203B030BD77
:1006A000F814FF1FEC14FF1F38B50A4D0123044650
:1006B0002B70FFF721FF084B214600201C80FFF71D
:1006C000C3FF0434241A054B18BF01242C70188072
:1006D00038BD00BF0C1DFF1FF614FF1FF414FF1FD1
:1006E0001E4B1B7B03F01C030C2B1BD01C4B93F8E5
:1006F000263003F03003302B14D01A4B1A4A1B78E3
:1007000003F0FF0033B992F8D83003F0EF0382F81A
:10071000D830704792F8D83003F0EF0382F8D83021
:10072000012070470F4B1A78032A0DD01B780E4A10
:10073000022B92F8D8300CBF43F0100303F0EF0304
:1007400082F8D83000207047074A92F8D83003F07A
:10075000EF0382F8D8300120704700BF7C22FF1FD2
:10076000F821FF1F5D33FF1F0466FF1F184B1A7827
:100770002DE9F04107460D46DFF85C801AB10022F2
:1007800088F895201A70FFF7ABFF98F8713098F849
:100790007120104E4042434003F080035A40002332
:1007A00088F8712033701C4655B1F81880B215F0E6
:1007B00003FC631C3219DCB2A3B2AB425070F4D319
:1007C00098F8D83003F0F70388F8D830BDE8F08106
:1007D000D907FF1FF814FF1F0466FF1FF0B52F4E47
:1007E00096F8703003F0400383B0002B36D02C4CC9
:1007F0002578002D3BD000277E2D1ED8294D13E0F3
:10080000237855F82300FFF78BFE04220023019084
:100810000DEB0201244827F05BFA23780133DBB2A9
:100820007E2B0746237008D832F0FAF80328E7DC5D
:100830001E4B03221A7003B0F0BD96F870201C49BD
:100840001A4D002302F0BF02F84386F870202B7087
:1008500023700B60FFF764FE03B0F0BD852003F04A
:10086000FF04FFF789FE114B1C7003B0F0BD40F28E
:10087000FD10FFF741FE02A92B4601F8045D01229D
:10088000094827F009FA074632F0CAF80028FBD0D9
:10089000002032F0B9F82578AEE700BF0466FF1FEC
:1008A000121DFF1F6833FF1FEC14FF1F0C1DFF1FDD
:1008B0006021FF1F2DE9F0433F4F97F8703003F0A0
:1008C000400383B0002B4AD0DFF804813B4C2578ED
:1008D000002D5AD04FF000097E2D2DD8384E394DBD
:1008E00032F09EF880B2042849DD237856F82300C0
:1008F000FFF716FE02A9002341F8040D0422324836
:1009000027F0E6F9237815F803905FFA89F932F0B9
:1009100087F80028FBD0484632F076F821782A483C
:1009200000232944012227F0D3F923780133DBB2D5
:100930007E2B81462370D3D997F87020234900235A
:1009400002F0BF026FEA090087F8702088F80030D3
:100950000B602370FFF7E4FD03B0BDE8F083DFF820
:10096000708003F0FF0498F80030052BAED085208E
:10097000FFF702FE88F8004003B0BDE8F0830523CE
:1009800088F8003003B0BDE8F0834FF41F70FFF724
:10099000B3FD02A92B4601F8045D01220A4827F0A5
:1009A0007BF9814632F03CF80028FBD0002032F081
:1009B0002BF8257890E700BF0466FF1F121DFF1F6C
:1009C0006833FF1FF82CFF1FEC14FF1F6021FF1F6F
:1009D0000C1DFF1F70B5184C2378013B042B11D858
:1009E000DFE803F003151F231100144E144D318866
:1009F0002888FFF729FE338828800433181A18BF87
:100A00000120207070BDBDE87040FFF753BF0D4A54
:100A10000D4B1178187830220023BDE8704000F0AB
:100A2000CFBCBDE87040FFF7D9BE074BBDE87040B2
:100A3000187801F02BBA00BF0C1DFF1FF614FF1F22
:100A4000F414FF1F0D1DFF1F121DFF1F2DE9F04F96
:100A5000A44C2378413B87B0362B00F2A881DFE815
:100A600013F09F01A6019A01A60193018E01A60130
:100A70008B0186018301A601A6015F01A601A601E3
:100A8000A6013601A60125011201FC00A601A6015E
:100A9000A601A601A601A601A601A601A601A6011E
:100AA000A601A601E700A601E300A601A601A60192
:100AB000F900A601DB00CB00A601A601A601A60154
:100AC000AC00A6016600A6014B00A601A6013700F6
:100AD0002179E078A578834F2FF0E0FDA1790646D3
:100AE00060792FF0DBFD112D00F07681072D00F0ED
:100AF000858107B0BDE8F08F2179E078A5782FF0E7
:100B0000CDFDA179804660792FF0C8FD022D074602
:100B100000F0E781012D00F08C8115B9402800F02C
:100B2000C881842007B0BDE8F04FFFF725BDE1780C
:100B30002079A5786B4E2FF0B1FD61798146A079BF
:100B40002FF0ACFD21798046E0782FF0A7FDA17948
:100B5000074660792FF0A2FD302D00F0F981072DB6
:100B600000F0FE81112D00F06F81142DC1D1B0F580
:100B7000006FBED15C4B5D481C680268B7700021F5
:100B80003B1294423170737048D95949A31A042B0F
:100B9000096800F31682002B04603FDD9AB254020C
:100BA0000334A4B2534801EB87010EF05BFA2046F0
:100BB00007B0BDE8F04FFFF777BD6179A0792FF05E
:100BC0006DFD0023E17823700746207994F80280B8
:100BD0002FF064FD044667B13E18424DB6B221467F
:100BE000404602F025F90134A4B2A64205F8010FEF
:100BF000F5D1781C80B2DBE7A0782AF017FEFFF76A
:100C000035FC06A9002341F8040D04223A4823705C
:100C10002FF0ECFF0520CBE716F0ACFA002007B070
:100C2000BDE8F04FFFF7A8BCA07801F0BBFDE6E7F8
:100C300030F09EFA314B324A1B68C01A904200F2E3
:100C4000C780304A92F8053143F0100382F805312D
:100C5000042067E716F018FAE0E72B4B1B78002B0F
:100C600000F0A780294B1B78002B00F0268131F083
:100C70001DFE0028FBD0264B1878002107B0BDE8E8
:100C8000F04F30F05BBA1F4B224993F8EC20002064
:100C90000870002A40F0088193F8ED30002B3FF4F3
:100CA00028AF07B0BDE8F04FFFF704BE1A4D0D4C5A
:100CB0000FCD0FC495E8030044F8040B16202180E3
:100CC000FFF7F2FC0F4B002283F8952011E7134D3C
:100CD000044C0FCD0FC495E8030044F8040B152015
:100CE000217065E7F814FF1F041DFF1F081DFF1F7B
:100CF000001DFF1FFB14FF1FF914FF1FE86FFF1FEC
:100D000040420F000466FF1F6820FF1F0C1DFF1FDD
:100D10006433FF1F121DFF1F107A03009479030034
:100D2000E1782079A7782FF0B9FC61790546A079A0
:100D30002FF0B4FC0446384601F0D0FE2E1986424E
:100D40003FF7EFAE5CB1C04CB6B22946013514F89E
:100D5000012F3846ADB201F0C7FEB542F5D130F0F3
:100D600007FABA4B186059E716F0C6F956E7B84BC0
:100D70001B88238004201BE716F048F94EE7B54B8B
:100D80001B682360042013E7A17860782FF086FCAD
:100D90000EF0A4FC42E7B04B1B882380022007E73B
:100DA0007D21002007B0BDE8F04FFFF7DFBC8320B6
:100DB000B8E6AA4B1B78002B7FF49BAE2421A848F1
:100DC00031F09EFDA74807B0BDE8F04F2FF0ECBA18
:100DD000A07827F005FC3BE7002E76D101287FF4B0
:100DE00088AEFB79022B00F02381032B00F01981E0
:100DF000042B7FF413AF0EF0DBFA0FE740F27E23F3
:100E00009E427FF476AE09287FF473AEB97B787B7F
:100E1000FC793D7A7E7A97F80B803F7B2FF03EFC81
:100E200000970190434632462946204616F004FAC0
:100E3000F4E640287FF475AE8B4A8C49284607B00B
:100E4000BDE8F04FFFF7B6BB002F7FF452AE10287D
:100E500000F0C58040F2022398427FF44AAEDFF8EA
:100E60001C823770B8F800703F010137BFB2012310
:100E700040F20129E01839469EB21D460EF036F8C0
:100E8000013706F1200205F12003BFB218B14B452E
:100E900096B2EFD13546B8F8003063552C44B01CFB
:100EA0001B1280B2637083E607B0BDE8F04FFFF716
:100EB00095BC28466E4A6F49C1E72F216E4831F034
:100EC0001FFD68482FF070FAD1E6012E65D1022887
:100ED0007FF40FAE397AF8792FF0E0FB674B18807A
:100EE0009CE6B8F1000F67D0002800F09980DFF889
:100EF000A091634DDFF89CB1DFF89CA10026B646B7
:100F00000EEB08040122A4B21EF01F0F29464FF079
:100F100000035C4816444FEA541E05D195F800C002
:100F20002AF81E400BF80EC0C8471FFA86FEBE45C1
:100F300005F10105DFF85891E2D3B8F5407F46D0BE
:100F40000020FFF719FB07B0BDE8F04F31F08CBD72
:100F500048464146FFF70AFC08F1010080B227E647
:100F60000023337016F03EF9707016F041F9B0703E
:100F700016F044F9F07016F04DF9307116F044F99E
:100F8000707116F04DF9B07116F050F90012F07151
:100F900016F04CF9307209200AE6032E3FF4A9AD91
:100FA000062E4AD106287FF4A4ADBB7A7A7A397A24
:100FB000F8790EF049FB31E60028C1D0DFF8DC906B
:100FC00097E70432026040F603040422EAE5C143D5
:100FD00002202AF015FC02202AF0D4FBB0E72A4BAD
:100FE000377093F8112172700223F370B770377164
:100FF0000EF06CFB020C030A010EB271F371307239
:1010000071710DF015FF023883B21A122846B372BF
:101010007272F77237737773B773F7733774C7E504
:101020008BE703900EF0BAF9184B03981870F5E5AA
:101030000EF026F8154B1E70F0E5072E30D104286F
:101040007FF457ADEAE500BFFE14FF1FE86FFF1FF6
:10105000AC790300B4790300B07903000C1DFF1FC5
:10106000E8790300680AFF1F381EFF1F841FFF1F57
:10107000882CFF1F942BFF1FB8790300FC1CFF1F57
:10108000FF14FF1FEC14FF1F0466FF1F7220FF1FD9
:10109000D17C02006C24FF1F442CFF1F997C0200AE
:1010A000052E7FF426AD08287FF423AD387BFD7A2A
:1010B0003C7AFA79B97B7B7A97F80DE0BF7ADFF852
:1010C00034C00A4E000440EA056042EA04220143AB
:1010D00042EA0343064D002441EA0E2243EA076335
:1010E0002046CCF8002033602C601BE5001DFF1F5C
:1010F000081DFF1F041DFF1F2DE9F047DFF8448185
:1011000098F80030082B84B000F0888031F0CEFBD6
:1011100000285BD1454E464DDFF82891454C464F9F
:1011200031F0C4FB002803DD98F80030072B1BD0FA
:10113000336803932968039B40F6B8325B1A9342E5
:101140000FD9002388F8003031F0B0FB002805DD0E
:1011500031F070FB31F0AAFB0028F9DC8020FFF7AA
:101160000BFA04B0BDE8F0873B88B4F800A0023366
:101170009A4509D231F05EFB304A2388924401330C
:101180000AF8020C2380CBE7FFF772F93368029369
:101190002A68029B9B1A40F6B8320021934282468D
:1011A00089F80010BCD801233A882449244826F045
:1011B00073FD824537D08220FFF7DEF901E031F080
:1011C00039FB31F073FB0028F9DCA9E798F800300F
:1011D000002B9FD131F052FBC4B2A4F14103392B53
:1011E0001CD93F2C1AD031F025FB31F05FFB0028D1
:1011F000FBD031F01FFB0D4E0D4DC1B220462FF03C
:101200004DFA32680C4B01920A4A019C1880022167
:1012100007232C60118088F800307DE700F0D0FEB5
:1012200004B0BDE8F087FFF711FC79E78070FF1F7D
:10123000F014FF1FF414FF1FF614FF1FF814FF1F14
:10124000EC14FF1F0C1DFF1F014826F0F1BC00BF6E
:10125000EC14FF1F884214D038B504460D4614F82C
:10126000011B094800230A222FF0B2F80121074888
:1012700031F046FBA542F2D10348BDE838402FF0DB
:1012800093B801482FF090B8680AFF1F347A030022
:10129000632810B504460BD9214600230A220A48C8
:1012A0002FF096F801210948BDE8104031F028BB25
:1012B0000121064831F024FB092CEDD80121034817
:1012C00031F01EFBE8E700BF680AFF1F347A030015
:1012D0002DE9F04F8DB00D460A460446009001916D
:1012E000014603A82AF038FB2A46214606A8039E99
:1012F0002AF0E2FADDF81C90069D9DF820704D451D
:1013000025D09DF914B09DF81580B6F90020AA46A5
:10131000EC19B8F1000F41D0B8F1010F14BF012052
:10132000022092FBF0F0C0B2FFF7B2FFAC4205D052
:101330001AF8010BFFF7ACFF5445F9D10223ED1B5E
:101340001A4813FB0B662FF02FF8A945DDD10421B5
:10135000174831F0D5FA9DE8060009A82AF0D6FA18
:101360009DF82D300A9D099CD3B9124EAC420FD086
:101370009DF92C704FF00208B4F90030307893FBDF
:10138000F0F018FB0744C0B2FFF782FFA542F3D18B
:1013900006480DB0BDE8F04F2FF006B86420C0E756
:1013A000054E064A012B08BF1646DFE7680AFF1FF5
:1013B000387A0300F0860300F4860300EC8603000D
:1013C0002DE9F04F1C46DFF830810223032C83B057
:1013D00006460D4688F800305ED0404B404F1A78E4
:1013E000002A54D1FFF77CF997F8713097F87120F3
:1013F0004042434003F08003534087F8713095B179
:101400000020DFF8E8908246CCB1032C30D031F0D8
:1014100007FB00280AF101031DDD5FFA83FA1FFABA
:101420008AF0A842F0D397F8D830002203F0F703EF
:1014300087F8D83088F8002003B0BDE8F08F30443A
:1014400080B214F0B9FD31F0DFFA31F0E9FA00288A
:101450000AF10103E1DC013D224A234B01365644E7
:10146000CAEB050A167083F800A003B0BDE8F08F40
:10147000D9F800B0DBF8003030441B68019380B22B
:1014800014F09AFD019B014658469847BFE7002299
:1014900087F895201A70A5E71E2A03D01F2A14D0BA
:1014A0000F4F9FE7114B0192D3F800901049D9F8E4
:1014B00000300B4F9B6D48469847D9F80030019A91
:1014C0001B681146484698478CE7084B094918683D
:1014D000034F03689B6D984784E700BFD907FF1F40
:1014E0000466FF1F121DFF1F0D1DFF1FB0810300AB
:1014F000C0860300407A03000C1DFF1FF8B5DA4DCB
:10150000002095F8953031F07FFA044695F8950063
:1015100031F07AFAC4F17204241A95F8750031F0AA
:1015200073FA241A95F8740031F06EFA241A95F8BB
:10153000790031F069FA241A95F8780031F064FAEC
:101540002B88241A180A31F05FFA241A287831F00F
:101550005BFA95F9526006EB86067600B6B2241A5D
:10156000300A31F051FA241A06F0FE0031F04CFA3C
:10157000241A95F8DD0031F047FA241A95F8730023
:1015800031F042FA241A95F8630031F03DFA241A3A
:1015900095F8630031F038FA241A632031F034FAF8
:1015A000241A632031F030FA2E7E06EB8606760090
:1015B000241AC6F3072031F027FA241A06F0FE0099
:1015C00031F022FA2E6906EB86067600B6B2241AAE
:1015D000300A31F019FA241A06F0FE0031F014FA3C
:1015E000AE6B06EB86067600B6B2241A300A31F0EE
:1015F0000BFA241A06F0FE0031F006FA2E6B06EB09
:1016000086067600B6B2241A300A31F0FDF9241AA3
:1016100006F0FE0031F0F8F96E7E06EB86067600E5
:10162000241AC6F3072031F0EFF9241A06F0FE0061
:1016300031F0EAF9241A002031F0E6F9241A95F87D
:10164000510031F0E1F9241A002031F0DDF9241ABB
:1016500095F82B0031F0D8F9241A002031F0D4F994
:10166000241A95F82C0031F0CFF9241A632031F0B8
:10167000CBF9241A632031F0C7F995F85A6006EBCC
:1016800086067600C6F30727241A384631F0BCF9DF
:10169000F6B2241A304631F0B7F9241A384631F040
:1016A000B3F9241A304631F0AFF995F85D6006EBD6
:1016B00086067600241AC6F3072031F0A5F9241A0D
:1016C00006F0FE0031F0A0F995F85B6006EB8606A7
:1016D0007600241AC6F3072031F096F9241A06F092
:1016E000FE0031F091F9241A632031F08DF9241AAB
:1016F000632031F089F9241A632031F085F9241A26
:10170000632031F081F9241A632031F07DF9241A25
:10171000632031F079F9B5F8566006EB860676005D
:10172000B6B2241A300A31F06FF9241A06F0FE001E
:1017300031F06AF995F8286006EB86067600241ADF
:10174000C6F3072031F060F9241A06F0FE0031F0EC
:101750005BF995F82A6006EB86067600241AC6F334
:10176000072031F051F9241A06F0FE0031F04CF94F
:10177000241A632031F048F9241A632031F044F927
:10178000241A632031F040F9241A632031F03CF927
:10179000B5F91C60241AC6F3072031F035F9241A74
:1017A000F0B231F031F9B5F92060241AC6F3072000
:1017B00031F02AF9241AF0B231F026F9EE6C06EB7A
:1017C00086067600B6B2241A300A31F01DF9241AC2
:1017D00006F0FE0031F018F9241A632031F014F9F4
:1017E000241A632031F010F9B5F9E03003EB8303DC
:1017F0005B00241A03F0FE0031F006F9241A63207E
:1018000031F002F9241A632031F0FEF8241A632023
:1018100031F0FAF895F9536006EB86067600B6B219
:10182000241A300A31F0F0F8241A06F0FE0031F0E4
:10183000EBF895F9545005EB85056D00ADB2241A0F
:10184000280A31F0E1F8241A05F0FE0031F0DCF846
:10185000241A002C06DD00250135632031F0D4F870
:10186000AC42F9D1F8BD00BF0466FF1F2DE9F04F6F
:10187000424B91B004AD1978284601F073FC9DF8F5
:101880001A30032B19D03E4F3E4E012B18D003D3F4
:10189000022B06D02FF0C4FABDF81810049831F0CE
:1018A0002FF86846294601F00BFD9DE8070085E802
:1018B00007009DF81A30032BE7D111B0BDE8F08F77
:1018C00029460DA801F0CCFE0D9CDDF838909DF85E
:1018D0003C804C4507D020464146C8EB040431F01B
:1018E0000FF8A145F7D129460AA801F0C1FE9DF8DD
:1018F00031300A9CDDF82C909DF930A09BBBDFF8BD
:1019000088804C4518BF4FF0020B0CD0B4F9003062
:1019100098F8000093FBF0F01BFB0A44C0B231F0D2
:1019200073F8A145F2D1294607A801F0A9FE9DF858
:101930002530079CDDF820909DF924A0C3B9DFF87D
:1019400048804C45ADD04FF0020BB4F9003098F808
:10195000000093FBF0F01BFB0A44C0B231F054F8D6
:10196000A145F2D19DE7012B14BFB846B046C8E7A8
:10197000012B14BFB846B046E3E700BFD807FF1FEE
:10198000F4860300EC860300F0860300F8B5C94B2B
:101990001B78013B0E2B00F2EC81DFE813F01C00FA
:1019A0007B0088009500E600F30065017D01B90128
:1019B000EA01D001EA01EA01DD010F001321BE486E
:1019C00030F09EFFBD482EF0EFFC0321BC48BDE87F
:1019D000F840FFF77DBC0921BA48BB4E30F090FFBC
:1019E000B6482EF0E1FC3546341D15F8011BB3480E
:1019F00000230A222EF0ECFCB0482EF0D5FCA542C4
:101A0000F3D105F10A0428462146FFF723FC1835D7
:101A100014F8011BA94800230A222EF0D9FCA7487C
:101A20002EF0C2FCAC42F3D104F1080534F8021BDD
:101A3000A2482EF00DFDA1482EF0B6FCAC42F5D127
:101A400004F10B0514F8011B9C4800230A222EF018
:101A5000BFFC9A482EF0A8FCAC42F3D196F82F3088
:101A600096F830109548994C43EA01212EF0F0FC8D
:101A700092482EF099FC04F14F0514F8011B8F4891
:101A800000230A222EF0A4FC8C482EF08DFCAC42E0
:101A9000F3D1F8BD07218E4830F032FF87482EF091
:101AA00083FC05218B48BDE8F840FFF711BC0D21F0
:101AB000894830F025FF81482EF076FC05218748C3
:101AC000BDE8F840FFF704BC854E8648092130F098
:101AD00017FF7A482EF068FC33787178774843EA2C
:101AE000012109B22EF0B4FC74482EF05DFCB51C47
:101AF00006F1170415F8011B704800230A222EF086
:101B000067FC6E482EF050FCA542F3D12F1D05F165
:101B1000080428463946FFF79DFB21463846FFF763
:101B200099FB204605F11201FFF794FB96F8291066
:101B3000624800230A222EF04BFC05F119045F488D
:101B40002EF032FC05F113002146FFF783FB6935C7
:101B500014F8011B594800230A222EF039FC57487B
:101B60002EF022FCAC42F3D1F8BD08215E4830F0E3
:101B7000C7FE52482EF018FC05215C48BDE8F8402D
:101B8000FFF7A6BB0C215A485A4D30F0B9FE4B481E
:101B90002EF00AFC05F10F0415F8011B474800233D
:101BA0000A222EF015FC45482EF0FEFBA542F3D18B
:101BB000AC1D2146284605F10C07FFF74BFB05F14C
:101BC000150620463946FFF745FB05F11E04384649
:101BD0003146FFF73FFB30462146FFF73BFB3135EF
:101BE00014F8011B354800230A222EF0F1FB33487C
:101BF0002EF0DAFBAC42F3D104F10A0504F114072C
:101C00002946204604F11E06FFF724FB28463946E4
:101C100004F12805FFF71EFB38463146FFF71AFB93
:101C200004F12C0730462946FFF714FB04F1300677
:101C300028463946FFF70EFB04F134053846314695
:101C4000FFF708FB30462946FFF704FB403415F840
:101C5000011B1A4800230A222EF0BAFB17482EF067
:101C6000A3FBA542F3D1F8BD0A21234830F048FE7A
:101C700012482EF099FB03212048FFF729FB082189
:101C80001F4830F03DFE0D482EF08EFB03211D480D
:101C9000BDE8F840FFF71CBB0D211B4830F030FEBB
:101CA00006482EF081FB01211848BDE8F840FFF7F7
:101CB0000FBB00BFD807FF1FE87A0300680AFF1FA9
:101CC000C026FF1F4C7A0300F821FF1F2922FF1FA7
:101CD000447A03002428FF1F587A03009C68FF1FE2
:101CE0007C22FF1F687A0300747A0300EC6DFF1FEB
:101CF000807A03001423FF1F907A0300B81DFF1F92
:101D00009C7A03003468FF1FA87A0300C06BFF1F92
:101D10000B211C481C4C30F0F3FD1C482EF044FBFA
:101D200004F1C00514F8011B184800230A222EF004
:101D30004FFB16482EF038FBAC42F3D1F8BD0D2115
:101D4000134830F0DDFD11482EF02EFB052111481F
:101D5000BDE8F840FFF7BCBA11210F4830F0D0FDC4
:101D60000A482EF021FB05210C48BDE8F840FFF79A
:101D7000AFBA22210A4830F0C3FD0448BDE8F8405C
:101D80002EF012BBB87A03009823FF1F680AFF1FCA
:101D9000C47A03007825FF1FD47A0300DC63FF1F99
:101DA000FC7A03002DE9F047022882B023D8304C9A
:101DB0003049314A314B54F8206051F8205052F8E4
:101DC000207053F8209051D1002430F06FFD00288E
:101DD000FBDD30F02FFD631114F01F0F04BFF05432
:101DE00025F813400134B4F5806FEED102B0BDE8A0
:101DF000F04729F093BC224D224E00274FF00A09EC
:101E0000DFF88480023E023D002430F04FFD0128BF
:101E1000FBDD30F00FFD824630F00CFD5FFA8AF1F9
:101E2000C0B22EF03BFC4A4601B2684631F06AFD72
:101E3000BDF90030203B03EB830388FB0312DB1763
:101E4000C3EB62033B441BB223EAE37326F8023F71
:101E500025F8024F2034A4B229F060FCB4F5806F5D
:101E6000D3D102B0BDE8F04729F058BCBFB2C7E7F4
:101E7000287A0300FC7F030014800300088003001D
:101E8000381EFF1F841FFF1F398EE338F8B51D4E23
:101E900096F870305B062AD51B4F04237E28044633
:101EA0003B7019DC194D55F82400000E30F0ACFDE4
:101EB00055F82400C0F3074030F0A6FD55F8240083
:101EC000C0F3072030F0A0FD55F824000134C0B263
:101ED00030F09AFD7F2CE6D196F870300C4903F073
:101EE000BF03002286F870303A700A60F8BD4FF4E4
:101EF000FE74002030F088FD013CFAD1024B1C70CA
:101F0000F8BD00BF0466FF1F0C1DFF1F6833FF1FD5
:101F10006021FF1F2DE9F843DFF8A08098F87030AA
:101F20005B0628D5DFF88C9006237E28044689F8C6
:101F300000302BDC1C4F1D4E15E057F82450280EA6
:101F400030F062FDC5F3074030F05EFDC5F30720B9
:101F500030F05AFDE8B230F057FD305D013430F01A
:101F600053FD7F2C12D030F05BFD0328E5DC104BD5
:101F70001C70BDE8F88340F27B24002030F044FD63
:101F8000013CFAD10B4B1C70BDE8F88398F8703017
:101F9000094903F0BF03002288F8703089F8002057
:101FA0000A60BDE8F88300BF6833FF1FF82CFF1FED
:101FB000121DFF1F0C1DFF1F6021FF1F0466FF1F66
:101FC0002DE9F04FA54C237881B0002B00F08280E2
:101FD000A34B18783F383B2800F23683DFE810F037
:101FE00080003403BE01E4018D003403A801EB013D
:101FF000F2018B003403EF023403EA029300850000
:1020000034032203E7023403E300C300D202CD020B
:10201000B202340334032F02340334033403340391
:10202000340320020F02B2009D01C30134033403C4
:102030003E009801340393013403340386013403D2
:10204000340354013403EC0034036C0034033403D0
:102050001D013403340317012FF0ACF830F026FCD7
:1020600002284FF00100F7DD30F0E4FB054630F0C8
:10207000E1FBC1B2E8B22EF011FB074629F0F0FBFC
:10208000874240F02F83002F00F08A8000252E46E3
:1020900001E02FF08FF830F009FC02284FF001002A
:1020A000F7DD30F0C7FB0135C1B23046AEB226F0E5
:1020B00087FABE42EFD373E030F0F8FB0028FBD084
:1020C00030F0B8FBC0B2FFF76DFE01B0BDE8F04FD5
:1020D00029F024BB30F0AEFB614BC0B2187079E739
:1020E000604840F2544130F00BFC5F4801B0BDE85D
:1020F000F04F2EF059B914F089FF012001B0BDE86E
:10210000F04F30F081BC594B1D7808232370002D0F
:1021100000F0F382564E574F564DDFF86491DFF8CA
:10212000648130F0C3FB002840F3AA8239883388E9
:102130008B4200F293824D4A00232370137001B04A
:10214000BDE8F08F0823237030F0B0FB0128434C2A
:10215000F5DD30F06FFB30F06DFBC0B226F040FAD9
:1021600000232370EBE70823237030F09FFB052842
:10217000E5DD30F05FFB30F05DFB30F05BFB30F015
:1021800059FB30F057FB30F055FB3B4B93F8EC001C
:10219000002840F0CC8293F8ED300BB1FFF7BAFE87
:1021A00000232370CBE71521344830F0A9FB324BD4
:1021B000002283F89520C2E70823237030F076FBD5
:1021C0000528264DBBDD30F035FB30F033FB0446EF
:1021D00030F030FB064630F02DFBF1B2C0B22EF0ED
:1021E0005DFA074630F026FB064630F023FBF1B2DD
:1021F000C0B22EF053FAE2B20023302A2B709ED1E7
:102200000146384601B0BDE8F04FFFF7D9B80020CD
:1022100001B0BDE8F04FFFF739BE30F047FB0628AC
:102220008DDD30F007FB30F005FB154B187030F0FA
:1022300001FB044630F0FEFAE1B2C0B22EF02EFAF5
:10224000104B186030F0F6FA044630F0F3FAE1B2C1
:10225000C0B22EF023FA064B188070E70C1DFF1F4A
:10226000111DFF1F907B0300680AFF1F101DFF1F39
:102270000E1DFF1F141DFF1F0466FF1F587B030068
:10228000D807FF1F181DFF1F0823237030F00EFB17
:1022900005287FF754AF30F0CDFA30F0CBFA5FFA73
:1022A00080F830F0C7FA054630F0C4FAE9B2C0B29F
:1022B0002EF0F4F9C44F386030F0BCFA054630F027
:1022C000B9FAE9B2C0B22EF0E9F9064600283FF4A7
:1022D00067AF00253968294489B2404600F0A8FD5F
:1022E000013530F091FBAE42F4D159E70FF004FE16
:1022F000B64C0346C0B2A4F89E3030F085FBB4F86B
:102300009E00000AFAE601B0BDE8F04F14F032BFBB
:1023100001B0BDE8F04F14F0B7BEAC4CD4F8980053
:10232000C0B230F071FBD4F89800C0F30720E5E6A6
:102330000823237030F0BAFA0128A54C7FF7FFAECE
:1023400030F078FA054630F075FAC1B2E8B22EF0F6
:10235000A5F90DF0C3F900232370F0E60023184619
:1023600031227D214EE70823237030F09FFA0128A7
:10237000974D7FF7E4AE30F05DFA30F05BFAC0B213
:1023800000F010FA0446000E30F03EFBC4F30740A4
:1023900030F03AFBC4F3072030F036FBE0B230F007
:1023A00033FB00232B70CAE60823237027F0E2FEDC
:1023B00000232370C3E68748032101B0BDE8F04F36
:1023C00030F09EBA29F04CFAC0B230F01DFB29F073
:1023D00047FAC0F3072030F017FB2C2030F014FB35
:1023E000002503E026F0FAF830F00EFB29F038FA69
:1023F000ABB2834205F101051846F3D3D0E60823BA
:10240000237030F053FA0128714C7FF798AE30F00A
:1024100011FA30F00FFAFFF771F8002323708EE6FF
:102420000823237030F042FA0028694C7FF787AE0A
:1024300030F000FA684A0023507223707FE60721CB
:102440006648674C674D30F05BFA67482DF0ACFF8B
:1024500004F1400634F8021F63482DF0F9FF022111
:10246000624830F04DFA35F8021F5F482DF0F0FF5A
:102470005D482DF099FFB442ECD10A215C485D4CD7
:102480005D4D30F03DFA58482DF08EFF04F14006C6
:1024900034F8021F54482DF0DBFF0221534830F07E
:1024A0002FFA35F8021F50482DF0D2FF4E482DF07C
:1024B0007BFFA642ECD102215048514C514D30F0E7
:1024C0001FFA49482DF070FF04F1200635F8021F6D
:1024D00045482DF0BDFF0221444830F011FA14F8B0
:1024E000011F414800230A222DF072FF3E482DF0C3
:1024F0005BFFB442EAD103214348444C444D30F0E1
:10250000FFF939482DF050FF04F10A0600230A2292
:1025100014F8011F34482DF05BFF0221334830F0DE
:10252000EFF900230A2215F8011F2F482DF050FF64
:102530002D482DF039FFA642E8D101B0BDE8F04F9B
:1025400030F092BA334D224E2A7808230E2A237097
:1025500040F29C8030F0AAF901287FF7F0AD30F00E
:1025600069F9194B2D781860064630F063F9B1B25D
:10257000C2B2284600F0B8FA12E601B0BDE8F04F4A
:10258000FFF774B9244B1B78002B00F0A48023784C
:10259000002B00F0C48030F089F90028FBD01F4BDD
:1025A0001878002101B0BDE8F04F2EF0C7BD14210E
:1025B0001B4802E701B0BDE8F04FFFF7E7B914F0A0
:1025C0009BFD01209AE500BF181DFF1F0466FF1F39
:1025D0000C1DFF1F207B03007C22FF1F707B03006C
:1025E000862CFF1F922BFF1F680AFF1F787B0300BA
:1025F0007C7B0300361EFF1F821FFF1F887B0300AA
:102600006B24FF1F422CFF1F8C7B03009A22FF1FAD
:10261000FB21FF1FD807FF1F6820FF1F6433FF1F28
:10262000407B03000823237030F040F900287FF737
:1026300086AD30F0FFF8C0B2A0F13003DBB2092B59
:1026400053D84E4A1370ABE510214D4830F058F97D
:102650004C482DF0A9FE0023237070E5D8F8003017
:1026600099F800B019441FFA81FA30F0E3F85146A6
:10267000C2B2584600F038FA2B8801332B8050E55F
:102680003A8833889A42FFF45AAD54E544F62C0355
:10269000D34003F0010383F00107002B3FF45AAF4E
:1026A00030F004F902287FF74AAD30F0C3F8044651
:1026B00030F0C0F8E1B2C0B22DF0F0FF324B2D780F
:1026C0001860044630F0B6F82146C2B2284600F041
:1026D0000BFA377033E52378002B7FF430AD2421DB
:1026E0002A4800E51A212A48FDE4A0F16103052BE0
:1026F0000DD8224B5738187052E530F0D7F806281D
:1027000019DC244B1B78002B3FF419AD02E5A0F136
:102710004103052B194B98BF3738187040E52F211E
:102720001D4830F0EDF817482DF03EFE33E700204D
:10273000FFF7ACFB34E530F07DF830F07BF80F4B61
:10274000164E187030F076F8074630F073F8F9B28C
:10275000C0B22DF0A3FF0C4B114F186030F06AF897
:10276000804630F067F85FFA88F1C0B22DF096FF2E
:10277000084A308001233D801370CDE4D807FF1F45
:10278000E87F0300680AFF1F181DFF1FE879030098
:10279000247B0300101DFF1FB87903000E1DFF1FCF
:1027A000141DFF1F2DE9F04FA3B0824605AD04A80C
:1027B00025F03EFA5146284600F0D4FC9DF81E3024
:1027C000012B00F0F880C0F0ED80022B63D1BDF842
:1027D0001C4000238DF86830002C00F074811AAE84
:1027E000013C00230122314604A8A4B225F070FA6E
:1027F000002CF5D180466846294600F061FD9DE831
:10280000070085E807009DF81E30032B6E4626D092
:10281000DFF8C0B2012B49D03FD3022B3BD1BDF82A
:102820001C4000238DF86830002C00F040811AAF66
:10283000013C00230122394604A8A4B225F048FA3D
:10284000002CF5D180462946304600F039FD96E847
:10285000070085E807009DF81E30032BDAD15046AB
:1028600000F03CF9BDF81C40001B002384B28DF839
:1028700068305CB11AAE013C00230122314604A845
:10288000A4B225F025FA002CF5D180466FEA0800A5
:1028900023B0BDE8F08F2EF0C3FA0023BDF81C2052
:1028A000059904A825F014FA8046CCE7294611A81A
:1028B00000F0E6FE294614A800F0DAFE294617A823
:1028C00000F0CEFE9DF86470179CDDF860801FFA62
:1028D00087F921464A46002304A8E41B25F0F8F9AD
:1028E000A04508D0214600234A4604A8E41B25F051
:1028F000EFF9A045F6D19DF85920149B159C9DF940
:1029000058E0002A4CD07149012A18BF59460A469E
:10291000A34200F0CE801AAF92F800C04FF0020838
:102920003A46B3F9001091FBFCF118FB0E339C42C0
:1029300002F8011BF5D1974206D0D21B92B20023B8
:10294000394604A825F0C4F99DF84D20119B129C2E
:102950009DF94CE012B35D49012A18BF59460A4659
:10296000A34200F0A98092F800C04FF002083A4656
:10297000B3F9001091FBFCF118FB0E339C4202F8F6
:10298000011BF5D197423FF45DAFD21B92B239469D
:10299000002304A825F09CF9804654E74C4ADFE761
:1029A0004B4AB5E70023BDF81C20059904A825F083
:1029B00073F980461FE7294608A800F061FE294602
:1029C0000BA800F055FE29460EA800F049FE9DF820
:1029D00040600E9C0F9F1FFA86F921464A4600234D
:1029E00004A8A41B25F058F9A74208D021460023CB
:1029F0004A4604A8A41B25F06BF9A742F6D19DF81E
:102A000035200B9B0C9C9DF93470002A46D1304A2E
:102A1000A34255D01AAE92F800C04FF0020E3246D3
:102A2000B3F9001091FBFCF11EFB07339C4202F846
:102A3000011BF5D1964206D0921B92B2002331467B
:102A400004A825F045F99DF82920089B099C9DF9CB
:102A5000287052B31F49DFF874E0012A14BF0A46F8
:102A60007246A3422AD092F800C04FF0020E3246BE
:102A7000B3F9001091FBFCF11EFB07339C4202F8F6
:102A8000011BF5D196423FF4B5AE921B92B231468E
:102A9000002304A825F01CF98046ACE60D490B4E36
:102AA000012A14BF0A463246B2E7094AD9E7A046CE
:102AB000C9E61AAF3A463EE73A4663E73246E1E7EF
:102AC0001AAE3246B6E7A04695E600BFEC86030094
:102AD000F0860300F486030010207047014B33F8A2
:102AE000100070472080030010B50F2800F2868088
:102AF000DFE800F00810151A1F24292E3853585FFC
:102B0000737A7F0910BD4F2940F2AF80FF2940F250
:102B1000BE8010BD7F297CD80020A74B46E0B1F5D0
:102B2000907F73D2A54848E0B1F5907F6DD2A4485C
:102B300043E07F2968D80020A24B37E0B1F5907FB1
:102B400061D2A14839E07F295CD800209F4B2DE05D
:102B50004F2940F287809F2940F29C80EF2940F264
:102B6000A28010BD2F2967D95F2940F299808F2953
:102B700040F2E480BF2940F30E81EF2940F30E813B
:102B8000B1F5907FC0F20D81B1F5A87FC0F20C8144
:102B9000B1F5C07FC0F20C8110BDBF293AD800202A
:102BA0008B4B03E0BF292CD88A4B0020091A5A54BA
:102BB00010BDB1F5907F23D28748FF2900F28680AF
:102BC000C9B201F00F037833C1EB430150FA81F32E
:102BD0001A7247F6FF73438010BD4F291BD99F29F6
:102BE0005BD9B72944D910BD7F2911D800207B4B70
:102BF000DCE7B1F5907F0AD27948DEE72EF010F9D4
:102C000010BD10BD10BD10BD10BD10BD10BD10BD5C
:102C100010BD10BD10BD73480023C91A89B23F29E9
:102C200000F28380C9B201F007031C33C1EB4301FA
:102C300050FA81F31A72CCE76B480023C91A89B2A3
:102C400023295AD8694BC9B2A3FB01439B0803EB64
:102C50004303A1EB43030F33C1EB430150FA81F36C
:102C60001A72B6E700236248D7E762480023D4E728
:102C7000A03989B20F2919D8C9B201F0030306336C
:102C80005D48C1EB430150FA81F31A72A1E75B4B37
:102C900050208BE750235A48BFE750235948BCE7E0
:102CA00030235948CAE7A0235848B6E7132961D80A
:102CB000A1F11003DBB202EB820255485B4202EB4A
:102CC0008202920020F813201E3882E7B1F5887F37
:102CD00049D200F5937400F583739C4234BF0123FD
:102CE0004FF0FF3302EB820249B203FB01F102EB2A
:102CF0008202930024F811306BE7292944D8A1F10E
:102D0000240300F1360400F12A01DBB202EB820257
:102D10008C4234BF01214FF0FF3102EB820201FBF4
:102D200003F3920024F8132053E7472909D8A1F1AF
:102D3000400300F1560400F14601E6E76023354800
:102D40007CE7A1F1480300F1660400F156015BB293
:102D50008C4234BF01214FF0FF3101FB03F35200DD
:102D600024F8132035E7A1F1100300F5A37400F552
:102D70009371ECE7A1F114035BB227485B42520068
:102D800020F81320263824E7A1F12A0300F1420499
:102D900000F13601DBE7902320484FE7C0232048AD
:102DA0004CE7F0231F4849E74FF490731E4845E76E
:102DB0001E484FF4A87341E7F821FF1F2428FF1F86
:102DC0009C68FF1F7C22FF1FEC6DFF1F1423FF1F59
:102DD0009823FF1F3465FF1F7825FF1FF029FF1F71
:102DE000DC63FF1F8429FF1FC06BFF1FABAAAAAAC9
:102DF000B81DFF1FC026FF1FCC2CFF1F742AFF1F0A
:102E00003468FF1FC41EFF1FF469FF1F401DFF1F12
:102E1000EA2CFF1FAC21FF1FF22CFF1F086DFF1FC4
:102E2000F032FF1F9024FF1FF067FF1F986FFF1FF6
:102E300010B50F2800F2B780DFE800F00B171C2157
:102E4000262B30354E7E83889908AF0D7F2940F2BE
:102E5000AC80002010BD4F2940F2B380FF29F8D884
:102E6000A14B5022891A585C10BD7F29F1D800224D
:102E70009E4BF7E7B1F5907FEBD29D4B6BE0B1F540
:102E8000907FE6D29B4B66E07F29E2D800229A4BE6
:102E9000E8E7B1F5907FDCD2984B5CE07F29D8D889
:102EA0000022974BDEE74F2940F285809F2940F2B0
:102EB0008E80EF29CDD8934BA022891A89B23F2961
:102EC00000F29C80C9B201F007021C32C1EB420142
:102ED00053FA81F3187A10BD2F2969D95F2979D95E
:102EE0008F2940F2C580BF2940F3F180EF2940F3DC
:102EF000F180B1F5907FC0F2F080B1F5A87FC0F20B
:102F0000EF80B1F5C07FA4DA7F4B4FF4A872891A25
:102F100089B2232900F2A4807C4AC9B2A2FB010233
:102F2000920802EB4202A1EB42020F32C1EB4201D6
:102F300053FA81F3187A10BDBF298AD80022744B46
:102F400090E7BF2985D80022724B8BE7B1F5907FBF
:102F5000BFF47FAF704BFF2969D8C9B201F00F02EF
:102F60007832C1EB420153FA81F3187A10BD4F2930
:102F700024D99F2928D9B7293FF66BAFA03989B248
:102F80000F292AD8C9B201F003030633634AC1EB03
:102F9000430152FA81F3187A10BDB1F5907FBFF466
:102FA00058AF5F4BD7E72DF03BFF00225D4B59E751
:102FB00000225D4BABE700225C4B7EE700225C4BBE
:102FC0007BE75C4B002278E750225B4B75E7502291
:102FD0005A4B72E730225A4B99E7132965D8A1F171
:102FE0001003DBB2574A58485B4232F9133080FB7A
:102FF0000320DB17C3EB6010C0B210BD47293AD8DD
:10300000403903F1560403F14602944234BF0122D1
:103010004FF0FF32CBB202FB03F34B4834F91330CD
:1030200080FB0320DB17C3EB6010C0B210BDB1F50D
:10303000887F34D203F5937203F583739A4234BFC9
:1030400001234FF0FF3349B203FB01F13E4832F94F
:10305000113080FB0320DB17C3EB6010C0B210BD42
:1030600029292ED8243903F1360403F12A02CCE7AA
:103070006022364B4BE7483903F1660003F15602F4
:10308000904234BF01224FF0FF324BB202FB03F3F8
:1030900030F9130000EBD070C0F3470010BD1039B9
:1030A00003F5A37003F59372EAE7A1F114035BB291
:1030B0005B42274A32F9130000EBD070C0F347009F
:1030C00010BD2A3903F1420003F13602D8E79022FD
:1030D000204B1CE7C022204B19E7F0221F4B16E7BC
:1030E0004FF490721E4B12E7742AFF1FF821FF1F46
:1030F0002428FF1F9C68FF1F7C22FF1FEC6DFF1F11
:103100001423FF1F401DFF1F986FFF1FABAAAAAA21
:103110009823FF1F3465FF1F7825FF1FCC2CFF1F4E
:10312000DC63FF1FF029FF1FC06BFF1FB81DFF1FCF
:103130008429FF1FC026FF1FC41EFF1F3468FF1F06
:10314000F469FF1FEA2CFF1F1F85EB51AC21FF1F05
:10315000F22CFF1F086DFF1FF032FF1F9024FF1F8E
:10316000F067FF1F38B50F2900F28980DFE801F012
:10317000151E2931393E4B505561676D757A7F08B0
:10318000404B036003250F240021502201230571C9
:103190004471C1800281837238BD00230322036021
:1031A00003714371C3800381827238BD364B036063
:1031B0000121002380220371C38083724171028147
:1031C00038BD324B03600525022400214FF4907274
:1031D000DCE72F4B03600525032400214FF4907298
:1031E000D4E72C4B036004210023E3E72A4B036060
:1031F000002405234FF49071012203714371C480B0
:103200000181827238BD254B036006210023D1E77E
:10321000234B036003250724B6E7224B03600824F1
:10322000012300213022037183724471C180028125
:1032300038BD1D4B036009210023C022BBE71B4B97
:1032400003600A210023C022B5E7194B036005255E
:103250000B2400214FF4907298E7164B036003256E
:103260000C2491E7144B03600D210023A2E7134BBC
:10327000036005250E2400214FF4907286E72DF09F
:10328000CFFD00BFC026FF1FF821FF1F2428FF1F0E
:103290009C68FF1F7C22FF1FEC6DFF1F1423FF1F84
:1032A000B81DFF1FC06BFF1F9823FF1F3465FF1F52
:1032B0007825FF1F8429FF1FF029FF1FDC63FF1FF4
:1032C00038B5CC880B894A7923449BB20F2A00F287
:1032D000EC80DFE812F01D0026002E003A004600C8
:1032E0004E005F0068007800A000A800B500C40090
:1032F000D800DF0010004F2B40F21381FF2B00F2AB
:103300002781BC4B03600F2400235021B0227CE0B6
:1033100000230322036003714371C380038182721F
:1033200038BD7F2B00F2F980B34B036001210023ED
:1033300037E0B3F5907F80F0E280B04B0360052565
:10334000022400214FF4907296E0B3F5907F80F054
:10335000CB80AB4B03600525032400214FF4907212
:103360008AE07F2B00F2BC80A64B0360042100237F
:1033700017E0B3F5907F80F0AE80A34B036000248C
:1033800005234FF49071012203714371C4800181C0
:10339000827238BD7F2B00F296809C4B0360062121
:1033A0000023802246E04F2B40F2CD809F2B40F23D
:1033B000E080EF2B00F2ED80954B0360032507249E
:1033C000A021502258E02F2B40F2B6805F2B40F214
:1033D000D5808F2B40F2E580BF2B40F3E980EF2BA7
:1033E00040F3ED80B3F5907FC0F2F080B3F5A87F95
:1033F000C0F2F380B3F5C07F80F2F780854B0360A5
:10340000082401234FF4A8713022037183724471A0
:10341000C180028138BDBF2B59D87F4B0360092181
:103420000023C02206E0BF2B41D87C4B03600A2159
:103430000023C0220371C38083724171028138BDB1
:10344000B3F5907F37D300220B244FF49073032100
:10345000026002714471C3800381817238BD4F2BB9
:1034600065D99F2B79D9B72B00F297806C4B0360FD
:1034700002250C24A0211822012305714471C1806A
:103480000281837238BD7F2B43D8664B03600D21C8
:10349000002386E7B3F5907F36D2634B03600525A2
:1034A0000E2400214FF49072E6E72DF0B9FC0022C3
:1034B0000A24C023CBE75D4B036005250B240021C4
:1034C0004FF49072D8E7002206248023BFE7002241
:1034D0000924C023BBE7002205244FF49073B6E70C
:1034E000002204248023B2E7002103224FF49073CA
:1034F0000160017142718272C380038138BD002274
:1035000002244FF49073A2E700220E244FF490732C
:103510009DE700220D24802399E7002201248023C7
:1035200095E7434B036003250F24002149E7414BF6
:10353000036003250C24F8E73F4B036008240123B4
:103540000021302261E73D4B036003250724ECE7AF
:1035500000220F244FF4807379E7394B0360032472
:103560000C215023012204714171C38003818272B6
:1035700038BD344B036003240721F2E7324B03606C
:10358000012230230821027182724171C3800381BC
:1035900038BD00220724F02359E700220C24B82369
:1035A00055E72A4B036008240123602130222CE7D1
:1035B000274B0360082401239021302225E7254B67
:1035C000036008240123C02130221EE7224B036040
:1035D00008240123F021302217E7204B0360082440
:1035E00001234FF4907130220FE7002208244FF49A
:1035F000C0732CE7742AFF1FF821FF1F2428FF1F28
:103600009C68FF1F7C22FF1FEC6DFF1F1423FF1F10
:10361000401DFF1F986FFF1F9823FF1F3465FF1F7A
:10362000CC2CFF1FF029FF1FDC63FF1F7825FF1F35
:10363000C026FF1F8429FF1FC06BFF1FB81DFF1F7F
:10364000C41EFF1F3468FF1FF469FF1FAC21FF1F5A
:10365000086DFF1FF032FF1F9024FF1FF067FF1F50
:1036600010B50A790968044628F026F9204610BDED
:1036700010B50A790968044628F048F9204610BDBB
:1036800010B50A790968044628F066F9204610BD8D
:1036900000207047704700BF00207047034B186838
:1036A00010B103681B681847704700BFC81FFF1F91
:1036B0002DE9F843DDF82080099FB3B116460C468A
:1036C000054603EB010904E020460134C0474C45A0
:1036D0000BD02B6832462146DB68284698473A468D
:1036E00031460028F0D1BDE8F8830120BDE8F88319
:1036F0002DE9F843DDF82080AAB11F460C460546A7
:1037000002EB010901E04C450DD02B6841462046F3
:103710001E6AB847214602462846B04701340028B1
:10372000F1D1BDE8F8830120BDE8F8834FF0FF3008
:10373000704700BF0D4B1B7B13F0600309D0202B9B
:103740000CD0402B0ED0602B06D0094B00221A6003
:103750007047074A1360704700EB4000044B800835
:1037600018607047024B4008186070477C22FF1FAA
:10377000C06DFF1F164B10B51B68984700B2B0F51F
:10378000B47F06DDA0F5B47083B2B3F5B47F18B290
:10379000F8D8104B10499B790A8803F00303821A6A
:1037A000022B92B203D18B6F43F30F23D21A0B4833
:1037B00091F87C30B0F9061112B2C3F58074520052
:1037C00013FB01F304FB02331B12A0F8063110BDFA
:1037D0001025FF1F1423FF1F7C22FF1F0466FF1FFD
:1037E0002DE9F047C34B1A7B02F01C020C2A00F0B3
:1037F0005181DD7B00212E460A46BF48BF4CB3F9FC
:1038000000C0246803881FB2CCEB040393FBF7F3DA
:10381000013B9BB21CB27718BC4202DD5B1B9B1ABA
:103820001CB2002C40F36181B54B1B881FFA84F851
:10383000984502D9B442D8BF9846B24CB0F800A01F
:103840002468DFF8E892CCEB040E19440FFA8AF4EE
:103850009EFBF4F4013C8845A4B2C8BF03EB020808
:103860000FFA84FEC8BF1FFA88F87745A9F80080D0
:1038700003DA641BA41A0FFA84FEBEF1000F40F3B2
:103880002F811FFA8EF8434502D2B645D8BF98461D
:103890009D4CB0F800A02468DFF89492CCEB040EA5
:1038A0000FFA8AF49EFBF4F4013C4145A4B2B8BF80
:1038B00003EB02080FFA84FEB8BF1FFA88F87745B9
:1038C000A9F8008003DA641BA41A0FFA84FEBEF183
:1038D000000F40F300811FFA8EF8434502D2B6452F
:1038E000D8BF9846894CB0F800A02468DFF844920D
:1038F000CCEB040E0FFA8AF49EFBF4F4013C414534
:10390000A4B2B8BF03EB02080FFA84FEB8BF1FFAD7
:1039100088F87745A9F8008003DA641BA41A0FFA27
:1039200084FEBEF1000F40F3D1801FFA8EF84345AC
:1039300002D2B645D8BF9846754CB0F800A02468AE
:10394000DFF8F491CCEB040E0FFA8AF49EFBF4F44A
:10395000013C4145A4B2B8BF03EB02080FFA84FE54
:10396000B8BF1FFA88F87745A9F8008003DA641B0E
:10397000A41A0FFA84FEBEF1000F40F3A2801FFAD2
:103980008EF8434502D2B645D8BF9846614CB0F890
:1039900000A02468DFF8A491CCEB040E0FFA8AF49F
:1039A0009EFBF4F4013C4145A4B2B8BF03EB02080E
:1039B0000FFA84FEB8BF1FFA88F87745A9F800808F
:1039C00003DA641BA41A0FFA84FEBEF1000F73DD44
:1039D0001FFA8EF8434502D2B645D8BF98464E4CE2
:1039E000B0F800A02468DFF85891CCEB040E0FFA71
:1039F0008AF49EFBF4F4013C4145A4B2B8BF03EB4A
:103A000002080FFA84FAB8BF1FFA88F85745A9F8D8
:103A1000008003DA641BA41A0FFA84FABAF1000FCB
:103A200045DD1FFA8AFE734502D2B245D8BF9E46D5
:103A30003A4C00882468DFF80C810FFA80F9CCEB4F
:103A4000040090FBF9F00138714580B2B8BF03EB78
:103A5000020E04B2B8BF1FFA8EFEA742A8F800E01B
:103A600002DA401B801A04B2002C1CDDA0B2834293
:103A700002D2B442D8BF18468142B8BF9B18284929
:103A8000284A91F952101180B8BF98B2264B18807D
:103A9000BDE8F0875A7992073FF5ABAEDA7B164660
:103AA00011461546A9E6154425442CB2DEE7AC18AC
:103AB00054440FFA84FAB4E7AC1874440FFA84FE45
:103AC00086E7AC1874440FFA84FE58E7AC187444C7
:103AD0000FFA84FE29E7AC1874440FFA84FEFAE664
:103AE000AC1874440FFA84FECBE6AB1823441CB226
:103AF0009AE600BF7C22FF1FC41FFF1F201EFF1F6E
:103B0000746CFF1F6C27FF1F8863FF1FD86CFF1F9B
:103B10009820FF1F102CFF1FA432FF1F301EFF1F15
:103B20000466FF1FF807FF1F7663FF1FA467FF1FD0
:103B3000C66DFF1F0425FF1FEE32FF1F286CFF1FFD
:103B4000D01FFF1F7629FF1FF0B56F4A137B03F0CC
:103B50001C030C2B00F0B080D67B002337461D469B
:103B60006A496B48B2F9002000680C883B4424B2D3
:103B7000801A90FBF4F00FFA80FE9E4503DD801B57
:103B8000401B0FFA80FEBEF1000F40F39E80614C97
:103B900008882468DFF8A8C1A41A00B294FBF0F0EA
:103BA00007B2BB42ACF800E002DA801B401B07B250
:103BB000002F40F39480584C08882468DFF884C1B3
:103BC000A41A00B294FBF0F00FFA80FE7345ACF833
:103BD000007003DA801B401B0FFA80FEBEF1000F5D
:103BE00078DD4E4C08882468DFF85CC1A41A00B266
:103BF00094FBF0F007B2BB42ACF800E002DA801BA5
:103C0000401B07B2002F7BDD454C08882468DFF895
:103C10003CC1A41A00B294FBF0F00FFA80FE734589
:103C2000ACF8007003DA801B401B0FFA80FEBEF177
:103C3000000F60DD3B4C08882468DFF814C1A41A2B
:103C400000B294FBF0F007B2BB42ACF800E002DA3D
:103C5000801B401B07B2002F49DD334C08882468C5
:103C6000DFF8F0E0A41A00B294FBF0F004B2A34233
:103C7000AEF8007002DA801B401B04B2002C32DD6B
:103C80002A4F088839682A4F8A1A00B292FBF0F24C
:103C900011B28B423C8002DA921B521B11B20029F6
:103CA00002DC35440D4429B22248234A234B90F9C3
:103CB000520010801980F0BD53799B073FF54CAF3F
:103CC000D57B2B462F462E464AE7701970440FFAD3
:103CD00080FE5CE7701970440FFA80FE81E770196E
:103CE000384407B267E77019204404B2C8E7701976
:103CF000384407B2B1E7701970440FFA80FE99E7B3
:103D00007019384407B27FE77C22FF1FC41FFF1FD2
:103D1000201EFF1F6C27FF1F8863FF1FD86CFF1F2B
:103D20009820FF1F102CFF1FA432FF1F301EFF1F03
:103D30007629FF1F0466FF1FF807FF1F7663FF1F2A
:103D4000A467FF1FC66DFF1F0425FF1FEE32FF1F74
:103D5000286CFF1FD01FFF1F104A114BB2F9001033
:103D60001B68104A5B1A126819B2914212DB9B1A47
:103D7000013BB32B0C4B0D498CBF012202221A8050
:103D80000B4A0C4B92F952201A808CBF0220012062
:103D9000088070470029B8BF9B18E9E77C22FF1F05
:103DA000201EFF1FA867FF1FC66DFF1FA467FF1F10
:103DB0000466FF1FF807FF1FF0B41F4B93F8243071
:103DC00003F0F003402B19D0602B10D11B4B1B7B51
:103DD00003F01C030C2B22D0194D1A4C1A481B4A15
:103DE0000223062604212E80238003801180184A96
:103DF000184B92F952201A80F0BC70470F4B1B7B76
:103E000003F01C030C2B0AD00D4D104C0D480E492D
:103E1000042202232A80228003800B80E7E7084ED9
:103E2000084C0A49084B082702250420062237803F
:103E3000258008801A80DAE7F821FF1F7C22FF1F07
:103E4000A467FF1FC66DFF1FEE32FF1F0425FF1F73
:103E50000466FF1FF807FF1F0349044B00200122DF
:103E600008801A70704700BF0066FF1FD46DFF1FE7
:103E7000034A13889BB20B2B84BF00231380704727
:103E80000066FF1F174A137803F0FF01FBB1164BC2
:103E90009B7923F07F0303F0FF0273B9134BD3F830
:103EA000A830632B0FD812490B889BB22D2B0AD058
:103EB000104B0A8001221A7070470D490E4B0020EA
:103EC000032208801A700B4B01221A707047084BAE
:103ED00009481980032313700370064B01221A70DE
:103EE000704700BF5D33FF1F7C22FF1F0466FF1F6A
:103EF0000066FF1FD46DFF1F3D6FFF1FF0B4264B00
:103F00001B7B03F01C030C2B244B93F952301FD066
:103F1000092B0FDC002B09DD214E224D224C2348BA
:103F2000012103223180298022800280204AF0BCB6
:103F3000138070471C4C1D48194E1A4D02222280D6
:103F400002801B4A0421318029801380F0BC704715
:103F5000092B11DC002BE9DD1149144A124D1148DF
:103F600001270F8007211180114A032605242E8086
:103F700004801380F0BC704709490C4A0A4D094877
:103F800008270F8006211180094A022604242E806A
:103F900004801380F0BC70477C22FF1F0466FF1F63
:103FA000A467FF1F0425FF1FC66DFF1FEE32FF1F12
:103FB000F807FF1F204B214A1B68B2F900101A1F97
:103FC0008A42D8BF03F534735B1A03EBD3731C4AE0
:103FD0005B10043B13801B4B1A68131F9942A8BF48
:103FE00002F53472521A02EBD272174B5210043A95
:103FF0001A80164B1A68131F9942A8BF02F5347233
:10400000521A02EBD272124B5210043A1A80114B20
:104010001B681A1F9142A8BF03F534735B1A03EBA8
:10402000D3730D4A5B10043B13800C4A0C4B92F97E
:1040300052201A80704700BF201EFF1F7C22FF1FE6
:10404000A467FF1F6C27FF1FC66DFF1F8863FF1F3C
:104050000425FF1FD86CFF1FEE32FF1F0466FF1FF1
:10406000F807FF1FF0B41D4B1B7B03F01C030C2B48
:1040700010D01B4B1B4893F952201B4B092ACBBF76
:10408000062401240321042104801980174BF0BC6D
:104090001A807047124A92F95220092A0EDD114CFB
:1040A000134923800923104D12480B800F4B032620
:1040B00006242E8004801A80F0BC704709490A4DFE
:1040C0000B4B0C4801270F80042607240A212E8061
:1040D00004801980054BF0BC1A8070477C22FF1FBA
:1040E0000466FF1FA467FF1FC66DFF1FF807FF1FB1
:1040F000EE32FF1F0425FF1F70B4394B93F82430B4
:1041000003F0F003402B19D0602B06D0354B93F908
:104110005230354A70BC13807047324A92F952309F
:10412000092B20DD132B3BDC304D3148314A23264F
:10413000092416212E8004801180EAE7294B93F987
:104140005230092B0BDD132B1ADC284A2321118056
:10415000274A10211180244A70BC13807047234ADB
:1041600024211180F4E7214D224A214824260924E4
:1041700017212E80048011801B4A70BC1380704769
:104180001D2B03DC194A22211180E1E7184A174848
:104190001F240D2104801180134A70BC13807047C6
:1041A0001D2B124912DD272BD4BF21201F20088090
:1041B0000F4906201D2B08800BDD272B0D4992F996
:1041C0005230D4BF142213220A80A2E72220088092
:1041D000EEE7084992F9523015220A8099E700BFAC
:1041E000F821FF1F0466FF1FF807FF1FA467FF1FCA
:1041F000C66DFF1F0425FF1FF0B4104B104993F943
:104200005230104D1048114A082B0BDD10270F803B
:104210000C2111800E4A042608242E80048013806D
:10422000F0BC704701270F800D211180084A052638
:1042300009242E8004801380F0BC70470466FF1FA1
:10424000A467FF1FC66DFF1F0425FF1FEE32FF1F6F
:10425000F807FF1F2DE9F04155490B7B03F01C03C4
:104260000C2B00F08880002004462426514D524A31
:10427000B1F90070138829681DB2CB1B93FBF5F3CD
:104280009BB2591E09B2B14202DD253B1B1B19B27C
:10429000002940F38880494BB2F800801D88484BC4
:1042A000DFF834C11B681FFA81FE28448645C4BF6D
:1042B00029191FFA81FED91B0FFA88F391FBF3F33A
:1042C0009BB2591E09B2B142ACF800E002DD253BB9
:1042D0001B1B19B2002961DD1FFA81FC6045394BB7
:1042E000B2F800E0DFF8F480BCBF29191FFA81FCA6
:1042F0001968A8F800C0CB1B0FFA8EF193FBF1F1FF
:1043000089B201F1FF3E0FFA8EFEB64503DD253975
:10431000091B0FFA81FEBEF1000F39DD2A4B12880E
:104320001968DFF8BCC01FFA8EFE13B2CA1B92FBDD
:10433000F3F292B2704502F1FF33B8BF05EB040E01
:104340001BB2B8BF1FFA8EFEB342ACF800E002DD2C
:10435000253A121B13B2002B15DD9BB298421B4865
:104360001B491C4A90F952000880BCBF2B199BB214
:104370001380BDE8F0814B799B073FF574AF242093
:104380000446482672E704F124021A4413B2E4E713
:1043900004F1240171440FFA81FEBFE704F1240304
:1043A0000B4419B298E704F124030B4419B272E7E5
:1043B0007C22FF1F201EFF1FC41FFF1F746CFF1FE6
:1043C0006C27FF1F8863FF1FD86CFF1F0466FF1F49
:1043D000F807FF1FEE32FF1FA467FF1FC66DFF1F08
:1043E0000425FF1FF0B5C54A137B03F01C030C2BFB
:1043F00000F06781D67B0025C14BC249B2F900703D
:1044000009681A8810B2CA1B92FBF0F2013A92B204
:1044100011B2002906EB050440F35A81A14200F3D2
:1044200045818AB2A2F11100012840F24881A2F12F
:104430002300012840F2A281353A012A40F29C81F2
:1044400046290A46A8BF462290B2AF4AB3F800C038
:104450001268DFF8E0E2D11B0FFA8CF291FBF2F266
:10446000013A92B211B20029AEF8000040F3438144
:10447000A14202DD921B521B11B28AB2A2F11100BD
:10448000012840F23681A2F12300012840F2788110
:10449000353A012A40F2908146290A46A8BF4622B1
:1044A00090B29A4AB3F800C01268DFF88CE2D11BD0
:1044B0000FFA8CF291FBF2F2013A92B211B200299A
:1044C000AEF8000040F35581A14202DD921B521B61
:1044D00011B28AB2A2F11100012840F24881A2F182
:1044E0002300012840F25081353A012A40F26281CE
:1044F00046290A46A8BF462290B2854AB3F800C0B2
:104500001268DFF838E2D11B0FFA8CF291FBF2F25D
:10451000013A92B211B20029AEF8000040F32481B2
:10452000A14202DD921B521B11B28AB2A2F111000C
:10453000012840F21781A2F12300012840F22281D4
:10454000353A012A40F2348146290A46A8BF46225C
:1045500090B2704AB3F800C01268DFF8E4E1D11BF2
:104560000FFA8CF291FBF2F2013A92B211B20029E9
:10457000AEF8000040F3F380A14202DD921B521B13
:1045800011B28AB2A2F11100012840F2E580A2F135
:104590002300012840F2FF80353A012A40F20081D1
:1045A00046290A46A8BF46221FFA82FE5A4A1888A0
:1045B0001168DFF890C1CA1B01B292FBF1F1013919
:1045C00089B208B20028ACF800E040F3C280A042F3
:1045D00002DD891B491B08B282B2A2F11101012937
:1045E00040F2B480A2F12301012940F2D180353A92
:1045F000012A40F2DA8046280146A8BF46211FFA68
:1046000081FE46491A880968DFF83CC1C81B11B20F
:1046100090FBF1F1013989B20AB2002AACF800E04E
:1046200064DDA24202DD891B491B0AB291B2A1F1ED
:104630001100012858D9A1F12300012840F2A680D9
:104640003539012940F2AF80462AA8BF462291B2EF
:10465000334A1B8812683348D21B1BB292FBF3F318
:10466000013B9BB21AB2002A018034DDA24202DD76
:104670009B1B5B1B1AB293B2A3F11101012931D923
:10468000A3F12301012940F28980353B012B40F23F
:104690009580462A1346A8BF46239BB22248234949
:1046A000234A90F9520008801380F0BD921B521BE0
:1046B00011B28AB2A2F1110001283FF6B8AE102063
:1046C000C3E653799B073FF595AED57B2E4693E61F
:1046D000224411B2A5E623441AB293B2A3F1110108
:1046E0000129CDD81023D9E71021B1E721440AB21E
:1046F0009CE71020D5E6224411B2BEE67C22FF1FC3
:10470000C41FFF1F201EFF1F6C27FF1F8863FF1F92
:10471000D86CFF1F9820FF1F102CFF1FA432FF1F13
:10472000301EFF1F7629FF1F0466FF1FF807FF1FBB
:104730007663FF1FA467FF1FC66DFF1F0425FF1FC1
:10474000EE32FF1F286CFF1FD01FFF1F4FF0100E0F
:1047500057E7214408B23FE74FF0100E26E7224406
:1047600011B20EE71020F4E6224411B2DDE610206B
:10477000C3E6224411B2ACE6342066E6222064E6A9
:1047800022208EE62220E4E62220B6E622215FE700
:104790004FF0220E35E74FF0220E07E722237DE788
:1047A0004FF0340E02E7342152E74FF0340E28E781
:1047B0003420CEE63420A0E6342072E634236DE7C0
:1047C000024A034B92F952201A8070470466FF1F79
:1047D000F807FF1FFFF7F4BFFFF7F2BFFFF7F0BFC7
:1047E000FFF7EEBFFFF7ECBFFFF7EABFFFF7E8BF49
:1047F000FFF7E6BF704700BF42F61013F0B5C15097
:104800004348444F05680368B7FBF1F643F0A04303
:10481000B7FBF6F791B005F080750360CF1B036816
:10482000DC01FCD5052E70D90020DFF8E8E0044655
:10483000831CB6FBF3FCBCF1190F00F101000CFB6B
:1048400003F3F5D8BEFBF3F3CB1A002BB8BF5B42E2
:10485000BB4217DB17D0BCF1050FE9D8631CB6FBD0
:10486000F3F6053E142E02D8B7F5967F16DD3DB956
:10487000274A136823F0805313601368D901FCD4CE
:1048800011B0F0BD0446BCF10B0F05D9BCF1120FFD
:1048900098BF04461F46DEE71F46DCE717461E4961
:1048A0003F2268462CF0A2F906EB460610AB1E44E8
:1048B0001A4816F8403C16F83F1C16F83E2CC9045E
:1048C00003F0070646F4800601F46013120446EA7A
:1048D000030102F4E0230B4343F4804343EA0464FE
:1048E00004600368022F14BF23F0080343F0080399
:1048F0000360002DC4D1064A136823F0805313606F
:104900001368DB01FCD411B0F0BD01230024A6E73D
:10491000004002400024F400A08003000440024054
:10492000704700BF00207047002070470820704784
:1049300090F8412002F008029AB1D0E90823D0E9AA
:104940000401101A30B463EB010100256FF000443C
:104950008D4208BF844201D330BC7047204630BC32
:10496000704702F0FF031846704700BFF8B52CF0FF
:10497000FFFB404A404B106011681C683F48091B10
:104980000160196811B90160116819603C4C006838
:1049900021683A4D884212D33A49097A01F07F01E1
:1049A00001293DD049B93849384801260E70296897
:1049B000F140216001683144016012681A60344C92
:1049C00023789B062AD5304B1B7843B3314B1B68A9
:1049D000984700B2B0F5B47F06DDA0F5B47083B29D
:1049E000B3F5B47F18B2F8D82649A3790A8803F042
:1049F0000303801A022B80B235D002B2264891F808
:104A00007C30B0F9EE10C3F58074520013FB01F353
:104A100004FB02331B12A0F8EE30F8BDF8BDF8BD60
:104A20001E4E196837681E48C91B01EB4101490831
:104A30000160196831602E6801688E42134902D204
:104A40000868032808D9104E01200025086030703E
:104A5000256012681A60B2E728688008206008683C
:104A600001300860A9E70F4BB3F88220821A12B216
:104A7000C4E700BFD832FF1F2C6CFF1F7432FF1F2A
:104A8000E06DFF1F7C22FF1FD46DFF1FD06DFF1F45
:104A90001423FF1F1025FF1F0466FF1FA86CFF1FB4
:104AA0006C25FF1F3465FF1F70B572B61749184A91
:104AB000184B0D6816681C882CF05AFB164BA4B2D4
:104AC000186062B615481A68B0F900301449921B94
:104AD000601E05EBD57503EB4000B2EB650F88BF98
:104AE0000130104B0A60B0F5347F1B6805DBA0F580
:104AF0003470984208DDC01A70BD9842FBDC002873
:104B0000B8BF00F5B47070BD70BD00BF306BFF1F43
:104B1000242BFF1F0066FF1FE427FF1F7C22FF1FBF
:104B2000F421FF1F9832FF1FF8B52CF021FB1A4A21
:104B30001A4D10601368286819491A4C1B1A0B602B
:104B400009682368994207D31368174E2B6033789E
:104B500053B1164B06221A80154B164A1B68126871
:104B60009B1A5B082360F8BD2CF002FB124A134B22
:104B7000D17B134F0D4D1860124A134B93FBF1F389
:104B800088B23B60288092F8E9300133DBB2032120
:104B900082F8E9303170DFE7D832FF1F2C6CFF1F3D
:104BA0007432FF1FE06DFF1F5D33FF1F0066FF1FA4
:104BB0007021FF1F7C20FF1F7C22FF1F242BFF1F63
:104BC000306BFF1F0466FF1F808D5B00F8B52CF073
:104BD000CFFA7D4A7D4C0346107823602CF0B4FA5E
:104BE0007B4B1B7883422DD07A4B1A78910607D4E1
:104BF0001A78920625D41A7842F020021A70F8BD6D
:104C0000754B22681868754B7549121A1A60086846
:104C10001A68B2EB400F7348028892B257D9002A43
:104C200064D0028892B2062A60D06F4C94F8E920D2
:104C30000132D2B284F8E920012202801B680B60A5
:104C4000F8BDF8BD644B2268684D1A6023682A6875
:104C50006749684E9B1A0B600A6833689A423FD3D3
:104C60005C48604B027842F0200202701A8892B2CF
:104C7000002A3FD0027842F0200202701A8892B2D5
:104C8000012A57D01A8892B2022A3FD01A8892B2CB
:104C9000032A72D01A8892B2042A77D01A8892B264
:104CA000052A33D01B889BB2062B00F083802B682B
:104CB00013B14B4B0A681A6023682B6032684D4968
:104CC0004CF250339A42BCD900230B60F8BD062A3F
:104CD00012D00288013292B202801B680B60F8BDCC
:104CE0003C4A137803F0DF031370F8BD424A0224F4
:104CF0001470A1E73260F8BD01223B4C028094F8A9
:104D0000E9200132D2B284F8E920E6E73B483C4B87
:104D1000026028221A80D1ED007AF8EE677AB7EEA9
:104D20000C7A67EE877AFCEEE77A17EE900AFEF7C8
:104D300001FDBCE7314F32483A60324B46220280D7
:104D4000314A1868106020682B4A186002231370DB
:104D5000D1ED007AF8EE677AF7EE0C6A87EEA67A64
:104D6000FCEEC77A17EE900AFEF7E4FC1E4AD2F872
:104D7000A8300133C2F8A83099E72048204B0260E0
:104D800046221A800868FEF7D5FC90E71B481C4BAA
:104D9000026046221A80D1ED007AF8EE677AF7EECB
:104DA0000C6A87EEA67AFCEEC77A17EE900AFEF739
:104DB000C1FC7CE71148124A03604623138008684F
:104DC000FEF7B8FC73E700BF902BFF1F686FFF1F53
:104DD0001128FF1F8027FF1F7432FF1F0C2CFF1F9D
:104DE000306BFF1F0066FF1F0466FF1F242BFF1F91
:104DF000841EFF1FC06DFF1F5D33FF1FD06DFF1F9F
:104E0000C41FFF1F7021FF1F7C20FF1F10B5194B0F
:104E1000194C93F8773022686168D01A814202DD1C
:104E20001344994213DB914212DB1ADC134B00212D
:104E300018782CF083F9124B012118782CF07EF9A8
:104E40002CF096F90F4AE06001231370237210BD15
:104E50000D4B217C18782CF071F92368013B2360FD
:104E6000E4E7094B617C18782CF068F9236801337A
:104E70002360DBE71423FF1F3C20FF1F946FFF1FFD
:104E80002B2BFF1F946CFF1FD967FF1F10B5094A1A
:104E900013780133DBB213701378042B04BF0023A3
:104EA000137014782CF064F9E4B2034B43F8240037
:104EB00010BD00BFD820FF1FA81EFF1F103027F015
:104EC00027BD00BF00B583B001220DF107011030EE
:104ED00027F04AFC01280CBF9DF807004FF0FF3077
:104EE00003B05DF804FB00BF103028F041B900BFEB
:104EF000103028F097BA00BF00B583B002AB012292
:104F000003F8011D1030194628F08CFA03B05DF843
:104F100004FB00BF2DE9F04706460F4672B6D0F8F5
:104F2000F03462B6C3F59C6302339A4284BF012316
:104F30000371D0F8F034C3F59C6302339A4228BF62
:104F40001A469246002A44D0D0F8F43400F10809F9
:104F5000002540F2E14810E0A2071ED122462BF0C6
:104F600045FED6F8F43423444345254488BFA3F2D4
:104F7000E2435545C6F8F4342BD0C3F59C620232A7
:104F8000C5EB0A0409EB03007919944240EA010ECB
:104F900028BF14461EF0030FDED0B0F1005F10D220
:104FA0000219B2F1005F0CD3002CDCD001380A19D1
:104FB00011F8013B00F8013F9142F9D1D6F8F434E1
:104FC000D1E7B1F1005FC9D20A19B2F1005FC5D3D0
:104FD000EAE7D6F8F0345344C6F8F0345046BDE85A
:104FE000F08700BF2CF090B82DE9F0410F4616462F
:104FF000804627F0E3F8044627F0D0F8054627F06E
:10500000ADF8A4F2BC739BB27F2B02D8EAB20C2A93
:105010002BD90023A8F8003027F070F8044627F0B9
:105020007DF8054627F08AF8E3B2172B02D8EBB2D9
:105030003B2B0BD900233B8027F080F810F0010FA9
:1050400014BF642300233370BDE8F081C3B23B2B4F
:10505000F0D8E4026B0104F4FF2403F4FF5323436C
:10506000C0F3460003439BB2E5E7C0B21F28D0D887
:105070006D0105F4FF55284340EA43239BB2C9E77D
:1050800010B504462BF046F9204610BD9A4B1B88FC
:1050900030B4002B4AD1994B1A88002A46D0984A3E
:1050A00012888A424FD0974A12888A4240D0964A44
:1050B00012888A426BD0954A12888A4200F09B80FF
:1050C000934A12888A4200F0AF80924A12888A423C
:1050D00000F0C480904A12888A427DD08F4A12889C
:1050E0008A4223D18E4C2279032A00F06781D3F8BB
:1050F000A830062B1AD98B4B1A688B4B8B491B682F
:105100000968101A05B29D428AB2C0F2B280C01A74
:10511000874B1B889BB200FB03F31B09C3EB0313F4
:1051200002EB53139BB20122E382627730BC7047DB
:1051300080490A79032A00F08280D3F8A830062B30
:10514000F4D97D4A08E07D490A79032A5DD0D3F875
:10515000A830062BEAD97A4A1268734C794B246836
:105160001B68101A05B2A5429AB240DB001B704BB7
:105170001B889BB200FB03F31B09C3EB031302EB79
:1051800053139BB20122CB8230BC4A7770476E49E1
:105190000A79032A05D0D3F8A830062BC6D96B4A62
:1051A000DAE76A4B67491A685F4B09681B68101A8F
:1051B00004B29C428AB2C0F28780C01A5C4B644938
:1051C0001B889BB200FB03F31B09C3EB031302EB29
:1051D00053139BB20B60A9E75E4C2279032A00F0BF
:1051E000D380D3F8A830062BA0D95B4B84E7002DE1
:1051F000B8BF0019BBE759490A79032A41D0D3F84F
:10520000A830062B92D9564AA6E74D4A464912685D
:105210004C4B09681B68101A04B28C429AB22CDB02
:10522000401A434B4F49CBE74F4C2279032A3BD0DE
:10523000D3F8A830062B7FF679AF4C4B5CE73E4A9B
:10524000394912683F4B09681B68101A04B28C4236
:105250009AB225DB401A364B4549B1E7454C2279D5
:10526000032A35D0D3F8A830062B7FF65FAF424B28
:1052700042E7002DB8BFC0184AE7002CB8BF40185D
:10528000CFE7374B2F491A68274B09681B68101A5C
:1052900004B29C428AB22ADBC01A254B37498FE7F9
:1052A000002CB8BF4018D6E7304B20491A681E4B77
:1052B00009681B68101A04B29C428AB2C0F28D8041
:1052C000C01A1B4B2E497BE7002CB8BFC01875E7EE
:1052D000294B16491A68144B09681B68101A04B246
:1052E0009C428AB27DDBC01A114B264968E7002C2C
:1052F000B8BFC018D1E700BFEE69FF1F0466FF1FEB
:10530000A467FF1FC66DFF1F0425FF1FEE32FF1F9E
:10531000286CFF1FD01FFF1F7629FF1F7663FF1F1A
:105320004021FF1F301EFF1FA867FF1F04900B4086
:105330002C2BFF1F9827FF1F6C27FF1F086BFF1FD9
:10534000201EFF1F04800340B827FF1F8863FF1F34
:10535000408003402021FF1FA432FF1FDC20FF1FDD
:10536000D86CFF1F30800340386BFF1F9820FF1F51
:10537000388003400021FF1F102CFF1F488003408E
:1053800030900B4038900B401D4B1E4A19681E4B45
:1053900012681B68081A01B2994292B225DBC31A3F
:1053A0001A491B48098889B203FB01F31B09C3EBA7
:1053B000031302EB53139BB20360B7E6154B114A7C
:1053C0001968114B12681B68081A01B2994292B20F
:1053D00010DBC31A0D491048E4E7002CB8BFC01811
:1053E0006FE7002CB8BFC0187EE70029B4BF1B18B8
:1053F0000346D5E70029B4BF1B180346EAE700BF00
:10540000A432FF1F04900B40A867FF1F2C2BFF1F27
:1054100040900B40301EFF1F48900B40F8B52BF01A
:10542000A7FE394C394D206023682868384F394A27
:1054300039493A4E1B1A3B60138801339BB21380E3
:105440000B7843F020030B7033688BB113889BB249
:10545000072B36D9324B012010803248D3F800E0B8
:10546000C0F800E0206818600B7843F040030B7030
:105470002D4B93F826305B061CD5138825499BB22B
:10548000032B17D00B88DFF8B4E028489BB2022B1F
:105490000B88BEF8001000889BB201F12A0194BF6E
:1054A00003F1FF33023B13FB0010118800B289B2F5
:1054B000FFF7ECFD2B680BB13B68336023682B6072
:1054C000F8BD33681A485B080360D7F800E003684A
:1054D0009E4513D2174B18484FF0030EA2F800E078
:1054E0004FF0020E83F800E00B7803F0BF030B705F
:1054F000D0F8A8300133C0F8A830B9E70B7843F0F2
:1055000040030B70B4E700BF686FFF1F242BFF1F21
:10551000841EFF1F0066FF1F8027FF1F306BFF1FC9
:105520007021FF1F7C20FF1FF821FF1FC41FFF1FDA
:10553000341EFF1F5D33FF1F0466FF1F7C22FF1F09
:1055400030B40D4B0D4A93F952301380112B0C4C93
:105550000C490D4B07DD062501200422258008801B
:105560001A8030BC7047072502200522258008805C
:105570001A8030BC704700BF0466FF1FF807FF1F8A
:10558000A467FF1FC66DFF1F0425FF1F174B1B7865
:10559000032B01D000207047154A1068E0B115496F
:1055A000D1F8A830012B18D972B6134A134B1B68D7
:1055B0001068134A1B1A5B08136062B6136811481F
:1055C000B0FBF3F044F24F6280B290420E4A88BFC3
:1055D00008885B0013607047704772B61068084A0D
:1055E000B42303FB00F3136062B6E7E75D33FF1FEC
:1055F000306BFF1F0466FF1F7C20FF1F7021FF1F01
:10560000906BFF1F008793030008FF1F08B51A4B1C
:1056100018782BF099FD194B01281A7815D072B122
:10562000174A13889BB2052B08D0164991F8E93028
:105630000133DBB2052081F8E930108008BD104944
:105640000520032208801A7008BD72B10C4A138825
:105650009BB20D2BF2D00B4991F8E9300133DBB24C
:105660000D2081F8E930108008BD05490D20032286
:1056700008801A7008BD00BF902BFF1F5D33FF1F0D
:105680000066FF1F0466FF1FF8B52BF071FD284967
:10569000284C08600B682568274A28485B1B136064
:1056A000156803689D421ED30B6823601368244D60
:1056B0009B0803602B78DBB9224C234F2BF058FD5D
:1056C000E27B224B224C2349186096B20020224BE9
:1056D00093FBF2F303223B60204B268008602A7084
:1056E00001221A70F8BD1E4B1B685B080360F8BDF1
:1056F0001C4A144CD2F8A810E37A9942DDD9144818
:10570000E17B03889BB2994209D0D2F8A830022BE2
:1057100005D992F8E9300133DBB282F8E930A37998
:105720001B060E4B48BF018001221A70F8BD00BF56
:10573000D832FF1F2C6CFF1F7432FF1FE06DFF1F5C
:105740005D33FF1F7C22FF1F306BFF1F242BFF1FC9
:105750000066FF1FC06DFF1F808D5B00D46DFF1FB3
:10576000906BFF1F0466FF1F70B5414C414E2378BC
:10577000414D2BF0FDFC4149414A08600B683068FF
:105780001B1A136010682B68984215D30B683D49AB
:1057900033600B7843F020030B7013685B082B60B9
:1057A00023789BB1384D2A88B5F8D6309A4204D276
:1057B00023782F4C032B25D070BD344B9B791B06CF
:1057C000FAD523782A4C032BF6D11BE0304B314A13
:1057D00040F2DC5119602B6810785B082B602BF0CD
:1057E000B3FC2D4B93F82430012803F0F0032ED0A6
:1057F000402BD7D1294B1B889BB2052BD2D1032339
:105800002370CFE7244B93F8243003F0F003402BB0
:10581000D2D12BF0ADFC224B1E491B68214AC01A85
:105820004308087813602BF08FFC0128C4D11B4A71
:1058300013889BB2082B08D00023237095F8E93019
:105840000133DBB285F8E93070BD138070BD402BA9
:1058500007D0602BA6D1114B1B889BB2072BA1D17F
:10586000CDE70E4B1B889BB2082B9BD1C7E700BF2F
:105870005D33FF1F2C6CFF1FE06DFF1FD832FF1F31
:105880007432FF1F8027FF1F0466FF1F7C22FF1F4B
:10589000C06DFF1F902BFF1FF821FF1F0066FF1F29
:1058A000AC6CFF1F2867FF1FF8B5254C23889BB2FF
:1058B000192B41D02BF05CFC224B234918601A684D
:1058C0000D682248521B0260228892B2D2B122880F
:1058D0001F4E204D013292B222802288208892B23F
:1058E00080B2013A023836F8122036F81000121A47
:1058F00092B22A801848027842F0200202701B6897
:105900000B60F8BD154A164E124D01202080154837
:10591000146804601868144C10602278134882F0F0
:105920000102032722703770D0F8A8200F2401321B
:10593000C0F8A8202C80DDE7094B00221A70F8BDC2
:105940000066FF1F686FFF1F242BFF1F841EFF1FB1
:105950007C6DFF1FC41FFF1F8027FF1F7021FF1FCB
:105960005D33FF1F7C20FF1FD46DFF1F0466FF1FE8
:10597000F8B52BF0FDFB2849284C08600B68266819
:105980002748284A284D9B1B0360138801339BB28C
:1059900013802B7843F020032B7013889BB20D2BC0
:1059A00014D013889BB2012B1DD0204E204D33689C
:1059B0001B4F5B082B6000682B6898420DD323684F
:1059C0000BB13B6833600B682360F8BD194B1B7843
:1059D000022BE6D100231380F8BD164B00200221D4
:1059E00010801970F8BD134B1B78022BDDD1124BC0
:1059F000124A1D6815600D68114A1D60D2F8A83062
:105A00000133C2F8A8302368002BDCD0074B0268B2
:105A10001A600B682360F8BD686FFF1F242BFF1FFF
:105A2000841EFF1F0066FF1F8027FF1F306BFF1FB4
:105A3000341EFF1F5D33FF1F7021FF1F7C20FF1FDF
:105A40000466FF1F38B52BF093FB194A194C106000
:105A5000194813682568194990F873005B1B0B609F
:105A6000830714D4164B1B788BB1164B09681B683F
:105A700099420BD31368144A2360136813490C48E6
:105A8000013313600B889BB2012B05D038BD104B3E
:105A900040F2DC501860E8E70E4A0168136899424A
:105AA00000D838BD036811680B4A5B1A136038BD13
:105AB000D832FF1F2C6CFF1F0466FF1F7432FF1FBC
:105AC0005D33FF1FE06DFF1FD06DFF1F0066FF1FDE
:105AD000C06DFF1F242BFF1FDC6CFF1F70B52BF068
